:020000022000DC
:106000000000012039400400794004007B40040076
:106010007D4004007F400400814004000000000037
:10602000000000000000000000000000B53F040078
:106030008540040000000000D53F040089400400B2
:106040008B4004008B4004004D1604008B4004007C
:106050008B4004008B400400FD1804008B400400BA
:106060008B4004008B4004008B4004008B400400F4
:106070008B4004008B4004008B4004008B400400E4
:106080008B400400413D04008B4004008B40040021
:106090008B4004008B400400C1F803008B400400D7
:1060A0008B4004008B4004008B4004008B400400B4
:1060B0008B4004008B400400000000000000000042
:1060C0008B4004008B4004008B4004008B40040094
:1060D0008B4004008B4004008B4004000000000053
:1060E00000000000000000000000000000000000B0
:1060F00000000000000000000000000000000000A0
:10610000000000000000000000000000000000008F
:10611000000000000000000000000000000000007F
:10612000000000000000000000000000000000006F
:10613000000000000000000000000000000000005F
:10614000000000000000000000000000000000004F
:10615000000000000000000000000000000000003F
:10616000000000000000000000000000000000002F
:10617000000000000000000000000000000000001F
:10618000000000000000000000000000000000000F
:1061900000000000000000000000000000000000FF
:1061A00000000000000000000000000000000000EF
:1061B00000000000000000000000000000000000DF
:1061C00000000000000000000000000000000000CF
:1061D00000000000000000000000000000000000BF
:1061E00000000000000000000000000000000000AF
:1061F000000000000000000000000000000000009F
:10620000F1EE103A43F08073E1EE103A704700BFB0
:1062100010B5054C237833B9044B13B10448AFF3E0
:1062200000800123237010BD8C3A00200000000084
:106230004CAE040008B5034B1BB103490348AFF350
:10624000008008BD00000000903A00204CAE040021
:10625000154B002B08BF134B9D46A3F5803A002138
:106260008B460F461348144A121A1FF0ECFE0F4BD0
:10627000002B00D098470E4B002B00D098470020F1
:10628000002104000D000D48002802D00C48AFF397
:1062900000801FF051FE200029001DF01BFF1FF0A1
:1062A00025FE00BF000008000000012000000000E3
:1062B000000000008C3A002050790020000000000F
:1062C00000000000014B01221A707047243C00209E
:1062D000014B00221A707047243C0020054A0649F1
:1062E00013880888054903430868138000211BF0C0
:1062F0004FBF00BF1E3F0020DE360020203F0020A1
:1063000070B50D4E0D4D0E4C304619F0FFFB2A4670
:1063100030460C491EF020FF20464FF4807119F0E2
:10632000D3FD2A46204608491EF016FF0748BDE85F
:10633000704019F077BC00BFA83A0020003600205A
:10634000483B0020C164020065040400083B0020B3
:10635000F0B54D4C4D4D4E4EC9B02046042119F0BC
:106360005DF810230093204602225B2119F042F8C9
:1063700000222046012119F087F82046082119F053
:106380001FFA08A84FF4807200211FF05CFE414BF9
:10639000414A19681268080E0390C1F30740029041
:1063A000C2F30723C1F30720C9B243F0C003D2B23E
:1063B000CDE9001008A8394920F0D4FC04F52C7769
:1063C00008A9204619F0D4F93846354918F038FDA7
:1063D0003846344918F036FD28460A22324919F069
:1063E00063FC28460722314919F052FC24A3D3E963
:1063F00000232F4908A820F0B5FC08A820F0F9FCDC
:1064000008A9C2B2284619F04BFC052229492846A2
:1064100019F042FC284619F04BFC274819F09AFB6A
:1064200030461AF053F801223046244919F090FD05
:1064300004F5007404A801F0E5FB2046062117F0DE
:1064400057FB04A9204617F0FDFA204617F00AFB77
:10645000204617F035FB2046012117F07DFBF42282
:106460002046202117F074FB20460F2117F06EFB09
:106470002046002117F0CCFB49B0F0BDAFF30080FF
:106480007B14AE47E17A843FAC6A0020083B0020D1
:10649000483B0020A4000010A8000010948D0400C8
:1064A000C5620200D1620200B48D0400C08D0400F8
:1064B000C88D0400CC8D0400A83A0020DD620200E3
:1064C00010B5044B044640F8103B17F081FC204601
:1064D00010BD00BFE8A70400F0B5B649B648B74CF8
:1064E000B74EB84D8FB020F0F9FBB74820F0F6FB5F
:1064F0000A2020F00BFCAF49AF4820F0EFFB627898
:106500002178B24820F0EAFB0A2020F0FFFBA949DD
:10651000A94820F0E3FBA178AD48002914BF31461B
:10652000294620F0DBFB0A2020F0F0FBA149A2481D
:1065300020F0D4FBE178A748002914BF3146294652
:1065400020F0CCFB0A2020F0E1FB9A499A4820F089
:10655000C5FBE07AA77A0490607A03970290277AC5
:10656000E079A37962792179CDE900079A4820F092
:10657000B5FB0A2020F0CAFB8E498F4820F0AEFB05
:10658000E07CA77C0490607C03970290277CE07BF2
:10659000A37B627B217BCDE90007904820F09EFB26
:1065A0000A2020F0B3FB8349834820F097FB607EEC
:1065B000277E0290E07DA37D627D217DCDE90007ED
:1065C00094F8230094F822700C9094F821000B9713
:1065D0000A9094F82070E07F09970890A77F607F69
:1065E00007970690277FE07E05970490A77E7C485A
:1065F000039720F073FB0A2020F088FB6D496E485A
:1066000020F06CFB94F8290094F82870029094F81C
:10661000270094F8263094F8252094F82410CDE92A
:10662000000794F8330094F832700C9094F831001D
:106630000B970A9094F8307094F82F0009970890FF
:1066400094F82E7094F82D000797069094F82C700B
:1066500094F82B000597049094F82A7061480397EA
:1066600020F03CFB0A2020F051FB5249524820F018
:1066700035FB94F8390094F83870029094F837009C
:1066800094F8363094F8352094F83410CDE90007AA
:1066900094F8430094F842700C9094F841000B97E2
:1066A0000A9094F8407094F83F000997089094F885
:1066B0003E7094F83D000797069094F83C7094F86B
:1066C0003B000597049094F83A704748039720F0F0
:1066D00005FB0A2020F01AFB3649374820F0FEFA65
:1066E000616C424820F0FAFA0A2020F00FFB314991
:1066F000314820F0F3FAA16C3D4820F0EFFA0A206F
:1067000020F004FB2B492C4820F0E8FA94F84C10B8
:106710003848002914BF3146294620F0DFFA0A2004
:1067200020F0F4FA2349244820F0D8FA324A334BB7
:1067300094F84D103248002914BF1146194620F034
:10674000CDFA0A2020F0E2FA1A491B4820F0C6FAD6
:1067500094F84E102B48002914BF3146294620F0EA
:10676000BDFA0A2020F0D2FA1249134820F0B6FAF6
:1067700094F84F10244820F0B1FA0A2020F0C6FA0D
:106780000C490D4820F0AAFA94F850101F4820F048
:10679000A5FA0A2020F0BAFA0649074820F09EFA26
:1067A00094F851101A4820F099FA0A2020F0AEFA15
:1067B00030E000BF608E0400688E04008436002044
:1067C000248E04002C8E0400708E0400808E040041
:1067D000988E0400AC8E0400B88E0400EC8E040089
:1067E000208F04007C8F0400D88F040038900400B0
:1067F0004C90040060900400388E0400408E040029
:106800006C9004007C90040090900400A49004001C
:10681000B49004002249234820F060FA94F8521002
:10682000214820F05BFA0A2020F070FA1C491D482C
:1068300020F054FA94F853101C4820F04FFA0A2024
:1068400020F064FA1649174820F048FA94F85410DA
:10685000174820F043FA0A2020F058FA104911484E
:1068600020F03CFA134A144B94F8551013480029B1
:1068700014BF1146194620F031FA0A2020F046FADA
:106880000749084820F02AFA94F857100C4820F0DD
:1068900025FA0A200FB0BDE8F04020F037BA00BF5B
:1068A000608E0400688E0400C0900400D090040044
:1068B000E0900400488E0400548E0400F090040020
:1068C00000910400F0B5B449B44CB548B54EB64D8E
:1068D0008FB01AF0B7FB32201BF0CAF86378227829
:1068E000B249AF481AF0AEFB32201BF0C1F8A278D3
:1068F000AF49AB48002A14BF32462A461AF0A2FB21
:1069000032201BF0B5F8E278AA49A548002A14BF46
:1069100032462A461AF096FB32201BF0A9F8E77A95
:10692000A07A617A05970490277AE0790391A1799A
:10693000637922790091CDE901079F4998481AF0BF
:1069400081FB32201BF094F8E77CA07C617C0597EA
:106950000490277CE07B0391A17B637B227B0091E9
:10696000CDE9010795498E481AF06CFB32201BF0E7
:106970007FF8E07DA17D94F821700B97CDE90010A0
:1069800094F8231094F822000D910C9094F82010A4
:10699000E07FA77F0A910990617F207F0897079188
:1069A000E77EA17E0690607E637D227D059704913F
:1069B000277E834903907A4802971AF043FB3220DE
:1069C0001BF056F894F8270094F8261094F83170CC
:1069D0000B97CDE9001094F8331094F832000D9124
:1069E0000C9094F8301094F82F0094F82E700A91BF
:1069F000099094F82D1094F82C000897079194F8BA
:106A00002B7094F82A10069094F8290094F82530F9
:106A100094F824200597049194F82870694903900C
:106A20005F4802971AF00EFB32201BF021F894F811
:106A3000370094F8361094F841700B97CDE90010A8
:106A400094F8431094F842000D910C9094F8401083
:106A500094F83F0094F83E700A91099094F83D1024
:106A600094F83C000897079194F83B7094F83A101A
:106A7000069094F8390094F8353094F8342005974E
:106A8000049194F8387050490390454802971AF0E1
:106A9000D9FA32201AF0ECFF626C4C4940481AF0E7
:106AA000D1FA32201AF0E4FFA26C49493C481AF0AE
:106AB000C9FA32201AF0DCFF94F84C2045493848D6
:106AC000002A14BF32462A461AF0BCFA32201AF0C5
:106AD000CFFF414B94F84D70404A41493048002F58
:106AE00008BF1A461AF0AEFA32201AF0C1FF94F825
:106AF0004E203C492A48002A14BF32462A461AF042
:106B0000A1FA32201AF0B4FF94F84F2036492448F5
:106B10001AF098FA32201AF0ABFF94F8502033495B
:106B20001F481AF08FFA32201AF0A2FF94F8512071
:106B30002F491B481AF086FA32201AF099FF94F870
:106B400052202C4916481AF07DFA32201AF090FF94
:106B500094F85320284912481AF074FA32201AF097
:106B600087FF94F8542025490D481AF06BFA32201B
:106B70001AF07EFF224B94F85550224A22490848C9
:106B8000002D08BF1A461AF05DFA32201AF070FF85
:106B900094F857201D493BE03891040084360020CA
:106BA000583B0020248E04002C8E04004C910400DD
:106BB000649104007891040088910400C09104005D
:106BC000F891040058920400B8920400189304004D
:106BD0002C93040044930400408E0400388E04007B
:106BE000509304006093040074930400889304009D
:106BF0009C930400A8930400B8930400C893040075
:106C0000548E0400488E0400D8930400E8930400D6
:106C100002480FB0BDE8F0401AF014BA583B00200B
:106C20000149024811F0A4BBEC590020283C002087
:106C300008B50B4811F0EAF901220A490A4811F097
:106C40009FFC00B908BD58220849074811F09EFA78
:106C5000054811F015FB0448BDE8084011F0D6BD09
:106C6000EC590020F8930400283C002084360020D2
:106C700010B5304816F0E8FC00222F492F4811F0DB
:106C80007FFC2E4811F006FE88B12D4C2B4858226F
:106C9000214611F061FD294811F0B8FD228845F226
:106CA000AA739A4227D1BDE81040FFF715BC2549C9
:106CB000254820F013F8254820F010F80A2020F08D
:106CC00025F864201AF0D4FE1A4811F09FF9012229
:106CD00019491A4811F054FC00B910BD582218493E
:106CE000164811F053FA154811F0CAFA1348BDE8D6
:106CF000104011F08BBD134913481FF0EFFF1448EB
:106D00001FF0ECFF0A2020F001F80A4811F07EF98C
:106D10004FF47A701AF0ACFEBFF34F8F0D490E4B53
:106D2000CA6802F4E0621343CB60BFF34F8F00BF29
:106D3000FDE700BFEC590020F8930400283C002038
:106D400084360020608E0400688E0400D48D040018
:106D5000F88D040000ED00E00400FA0510B50022F3
:106D60003249334811F00CFC314811F093FD88B3DF
:106D7000582230492E4811F0EFFC2D4811F046FD05
:106D800058222D492B481FF02BF920B90124FFF779
:106D9000A3FB204610BD294929481FF09FFF294821
:106DA0001FF09CFF0A201FF0B1FF64201AF060FE64
:106DB0001E49254811F0D0F901221C491C4811F048
:106DC000DFFB044648BB1A4811F020FDFFF784FBA7
:106DD000204610BD19491A481FF080FF1B481FF0BC
:106DE0007DFF0A201FF092FF64201AF041FE164832
:106DF00011F00CF901220D490D4811F0C1FB0028DA
:106E0000B6D058220C490A4811F0C0F9084811F0D0
:106E100037FA074811F0FAFCAAE758220649044855
:106E200011F0B4F9024811F02BFACCE7F893040002
:106E3000283C00200436002084360020608E0400A8
:106E4000688E040010910400EC590020D48D0400D9
:106E5000044B186820B100231A4619461AF0D6BE12
:106E6000704700BF943D002038B51549154C0546C4
:106E700015481FF033FF154B1548595D1FF02EFFC5
:106E80000A201FF043FF134A13491388088821681A
:106E90000343138079B10A490B481FF01FFF0F48C5
:106EA0001FF01CFF0A201FF031FF002320681A4644
:106EB00019461AF0ABFE0A4B01221A7038BD00BF0A
:106EC0009C960400203F0020688E0400D0960400A9
:106ED000A49604001E3F0020E0360020BC9604006B
:106EE000A03E002038B5124D124C294620461FF016
:106EF000F5FE11481FF0F2FE0A201FF007FF294699
:106F000020461FF0EBFE0D481FF0E8FE0A201FF0A0
:106F1000FDFE294620461FF0E1FE09481FF0DEFE77
:106F20000A201FF0F3FEBDE8384002F061BC00BF4C
:106F30009C960400688E0400309604004496040079
:106F40007C96040070B52E4C82B0002109201DF003
:106F500007FFE378002B3ED002F042FD29490546A9
:106F600029481FF0BBFE294628481FF0B7FE0A201B
:106F70001FF0CCFE64201AF07BFD94F85250002DD7
:106F80003AD1234B2349244E1A880888316802439A
:106F90001A8079B11B491C481FF0A0FE1F481FF042
:106FA0009DFE0A201FF0B2FE2B462A462946306875
:106FB0001AF02CFE1A4B01221A7001230093A16CC7
:106FC000184A194800231DF021FC174802B0BDE8FB
:106FD00070401DF02FBC0B490B481FF07FFE13487B
:106FE0001FF07CFE0A201FF091FE64201AF040FD85
:106FF00094F85250002DC4D0284602F0A9FCDCE7DA
:10700000843600209C960400688E0400FC950400E1
:107010001E3F0020EA360020203F0020BC960400DE
:10702000A03E0020AD740200243F002024960400FE
:1070300030B5044683B0334933481FF04FFE207A01
:10704000B4F9063022796179009030481FF046FE8D
:107050000A201FF05BFE6379022B06D0032B02D1BE
:107060002379012B26D003B030BD2279216828482E
:10707000284D1EF0C4FF2849284A0888284913884B
:1070800024790C702968034313800029EBD01D4933
:107090001D481FF023FE23481FF020FE0A201FF08A
:1070A00035FE002328681A46194603B0BDE8304073
:1070B0001AF0ACBD2368187801281AD010D3022822
:1070C000D1D102F045FC0F490F481FF007FE1648CA
:1070D0001FF004FE0A2003B0BDE830401FF016BECA
:1070E000002002F035FC074907481FF0F7FD0F4864
:1070F000EEE702F02DFC034903481FF0EFFD0C48BA
:10710000E6E700BF9C960400688E040060950400CA
:107110009C3D0020203F0020EA3600201E3F00203A
:10712000993D0020BC960400DC9504009C95040069
:10713000BC95040080B51B491B481C4C1C4D1D4FC1
:107140001D4E1FF0CBFD1D481FF0C8FD0A201FF08B
:10715000DDFDC8201AF08CFC02F04AFB23787BB9D5
:10716000AB6E98470A201AF083FC2378002BF5D0E9
:10717000042231460B201AF0B7FA2378002BEFD007
:10718000002109201DF0ECFD4FF0FF3138681BF0A5
:10719000BDF90128E2D1014609201DF0E1FDEB6EA9
:1071A0009847DBE79C960400688E0400A03E002010
:1071B000189B0400943D0020516E02004495040089
:1071C00038B5054CA4F1780520460C3C1AF0FEFBBE
:1071D000AC42F9D138BD00BF103F002070B503228A
:1071E00082B0002101201AF09DFC544C00231A4665
:1071F000194620601AF00AFD022000F03DFD00282B
:1072000068D14F4C4F4D0646201D01F0D7FF04F1C9
:107210000C0001F0DBFF04F1140001F0DFFF04F1CA
:10722000240001F0E9FF04F1340001F0F3FF606C89
:1072300001F0FEFF94F84C1094F8512094F84D3072
:10724000297094F84F106A70AB7094F8502094F83D
:107250004E30E9703C483D492A716B711FF03EFD8C
:1072600094F857303A4A3B4803EB430352F8231053
:107270001FF034FD0A201FF049FD94F85720E378F1
:107280003548CDE9006295E8060002F075F805463C
:1072900068BB94F8530001F0D1FF2C49002833D08B
:1072A00029481FF01BFD2D481FF018FD0A201FF074
:1072B0002DFD2B4B25492B480124CDE900434FF4EC
:1072C00000622B461BF066FC50B3274B28461C700F
:1072D00002B070BD1D491C481FF000FD23481FF07F
:1072E000FDFC0A201FF012FD4FF0FF30F0E71749B8
:1072F00015481FF0F3FC1E481FF0F0FC0A201FF099
:1073000005FD6FF00100E3E70F481FF0E7FC1948A7
:107310001FF0E4FC0A201FF0F9FC6FF00200D7E731
:107320000A4909481FF0DAFC13481FF0D7FC0A206D
:107330001FF0ECFC6FF00300CAE700BF943D002093
:10734000843600208C3C0020688E04009C9604004B
:10735000A43E0020949404005C3600200C950400A8
:107360009C3E002035710200983D00207894040076
:10737000B0940400D09404002495040070B506462F
:107380000C4602F091FA01280BD00F490F481FF06C
:10739000A5FC0F481FF0A2FC0A201FF0B7FC00203C
:1073A00070BD0C4D0C482C713146224602236B7186
:1073B0001EF025FE094B284693F8551002F082FA7C
:1073C000B0FA80F0400970BD9C960400688E0400FD
:1073D0004C94040078360020943C00208436002031
:1073E00010B51C4C1C4920461AF0CAFA04F10C00D6
:1073F0001A491AF0C5FA04F1180019491AF0C0FA2E
:1074000004F1240017491AF0BBFA04F130001649C0
:107410001AF0B6FA04F13C0014491AF0B1FA04F17A
:10742000480013491AF0ACFA04F1540011491AF05B
:10743000A7FA04F1600010491AF0A2FA04F16C00F6
:107440000E491AF09DFA0E4A0E490020BDE8104080
:107450001DF082BEA43E0020FC93040004940400AE
:107460000C940400149404001C940400249404005C
:107470002C940400349404003C94040044940400CC
:1074800000360020C1710200BFF34F8F0549064B43
:10749000CA6802F4E0621343CB60BFF34F8F00BFB2
:1074A000FDE700BF00ED00E00400FA0508B501218A
:1074B00009201DF055FC064A06491388088806492C
:1074C000034313800868BDE8084000211AF060BE3D
:1074D0001E3F0020EA360020203F00202DE9F04F1B
:1074E000DFF884B38BB04FF0FF3100AFDBF8000062
:1074F0001BF00CF8012803D02C37BD46BDE8F08FF7
:10750000014609201DF02CFCB54CB64EDFF85C930B
:10751000DFF85CA3DFF8388323880CE0B24A1288D6
:107520009A433CD0B14A12889A4360D0B04A12883C
:107530009A4300F0A68032889A4200F0FC80B9F8A5
:1075400000209A43EAD1BAF80020AA4813404146E5
:1075500023801FF0C3FBA8481FF0C0FB0A201FF0C8
:10756000D5FBA6480022C7E907026F23052107F1D2
:107570001C0087F82030FFF701FF4146002840F04B
:10758000D0809C481FF0AAFB9D481FF0A7FB0A2053
:107590001FF0BCFB944A238812889A43C2D1994AAF
:1075A00094481288984D1340414623801FF096FB63
:1075B00096481FF093FB0A201FF0A8FB64201AF0E6
:1075C00057FA29465822924816F0C2FE29465822F8
:1075D0008F4816F0CFFFAB7823B18E4B1B78002B72
:1075E00000F0EB80814A238812889A439ED18A4A10
:1075F0008A49128807F11C0013400A22238019F0DF
:107600003DFD07F11C001AF019FA854979481FF071
:1076100065FBF96983481FF061FB0A201FF076FBC8
:1076200007F11C0000211AF0FBF90378532B0CD151
:10763000784B7D4A18787D4B7D49002818BF1A4643
:10764000764819F0FFFCFFF73DF9002107F11C0017
:107650001AF0E6F90378452B00F0B280002107F11B
:107660001C001AF0DDF90378522B00F0AF8007F10F
:107670001C001AF0ABF95E4A238812889A437FF403
:107680005AAF6C4A5B4812886B4D134041462380C9
:107690001FF024FB69487D601FF020FB0A201FF0CB
:1076A00035FB2B781F2B62D8654BFB601D78C7F824
:1076B00000D005EB4503DA1D02F4FF62ADEB020DCD
:1076C0000021012BC7F810D08DF8001003F1FF3214
:1076D00003DD0DF101001EF0B6FCA5B1564B7B6039
:1076E000002513F8012B7B61BB603B695549581994
:1076F0001FF038FBFB68504A19787B699A1A0335EA
:107700009142EDB2EDDC41463A481FF0E7FA3969A3
:107710004D481FF0E3FA0A201FF0F8FAD7F800D01E
:1077200030E034481FF0DAFA48481FF0D7FA0A2050
:107730001FF0ECFA2EE746492E481FF0CFFA4548D5
:107740001FF0CCFA0A201FF0E1FA0025DBF8000058
:1077500025800A211AF0DAFE294609201DF000FBD7
:107760000A201AF085F92C37BD46BDE8F08F414656
:1077700020481FF0B3FA294633481FF0AFFA0A2019
:107780001FF0C4FA344B1B78002B3FF4C5AE2C4BD2
:10779000FB601B7863B1284D15F8012B29491F4860
:1077A00019F050FCFB6819787B68EA1A9142F3DC07
:1077B0002A491A4819F02EFCAEE6FFF70FFD11E733
:1077C0002749164819F03EFCFFF732FA25491348BD
:1077D00019F038FC41F288301AF04AF9FFF754FEEC
:1077E0001E3F00201C3F0020DC360020DE3600203B
:1077F000E0360020688E0400E896040048656C6C52
:10780000F8960400E2360020843600202897040011
:107810002C3F0020983D0020E4360020583B0020FB
:107820004497040048970400D4960400D8960400B6
:1078300058970400E63600209C3D002098970400ED
:10784000993D0020B4970400689004001497040048
:10785000E4960400BC970400243C002048910400F6
:107860007097040088970400203F0020EA3600202B
:10787000E836002010B5074C20461CF0BFFF064A32
:10788000064920461DF068FC054A064B12881A80FE
:1078900010BD00BF243F002000360020AD4704008B
:1078A0001C3F00201E3F00202DE9F04B0322002149
:1078B00001201AF037F9DFF8B091DFF8B081C9F88C
:1078C0000000002319461A461AF0A0F901210920E8
:1078D0001DF004FA002109201DF042FA01211620B2
:1078E0001DF0FCF9012116201DF03AFA40464FF434
:1078F000E13119F0B1FC1AF0AFF898F8A33013BBDE
:107900000646002741F2873400250DE01AF0B0F852
:1079100009201DF037FAB0FA80F1490909201DF05D
:107920001FFA98F8A33073B91AF096F88346BBEBA8
:1079300006024FF0000C6CEB0703944275EB030357
:107940004FF06400E2DA012109201DF009FA3C49F8
:107950003C481FF0C3F93C481FF0C0F90A201FF053
:10796000D5F9374937481FF0B9F938481FF0B6F94B
:107970000A201FF0CBF9324932481FF0AFF93248E4
:107980001FF0ACF90A201FF0C1F9FFF771F9FEF7FB
:10799000DFFC2F4B2A499B782A487BB31FF09EF9C6
:1079A0002C481FF09BF90A201FF0B0F9FFF716FCD6
:1079B0002349A8B32348284C0E4605461FF08EF9EC
:1079C00026481FF08BF90A201FF0A0F931462846FF
:1079D0001FF084F920461FF081F90A201FF096F964
:1079E00009201DF0CFF9B0FA80F1490909201DF0F6
:1079F000B7F941F288301AF03BF8E7E71FF06EF96B
:107A000017481FF06BF90A201FF080F964201AF064
:107A10002FF8D9F800000A21BDE8F04B1AF076BD26
:107A200008481FF05BF90F481FF058F90A201FF0B3
:107A30006DF9D9F800000A21BDE8F04B1AF066BDD7
:107A4000E4960400688E0400D0970400F8970400C0
:107A500084360020189804005898040044980400C4
:107A6000909804007C980400203F0020186E0020AD
:107A700070B541480D46414916461C461FF02EF987
:107A80003F481FF02BF90A201FF040F94FF47A709D
:107A900019F0EEFF281D3B4917F05AFA90B1582C07
:107AA00011D1328845F2AA739A4219D0334932482B
:107AB0001FF014F934481FF011F90A20BDE8704096
:107AC0001FF024B970BD2D492B481FF007F921463E
:107AD0002E481FF003F90A20BDE870401FF016B9C8
:107AE0002B4D3146224628461EF089FAFFF736F91B
:107AF00029462246274816F02BFC294622462548CF
:107B000016F038FD95F85650DDB9234C2368002B4C
:107B1000D8D0224A224913880888184903431648B6
:107B200013801FF0DBF81F481FF0D8F80A201FF061
:107B3000EDF82B462A4629462068BDE870401AF029
:107B400065B80E490C481FF0C9F817481FF0C6F871
:107B50000A201FF0DBF84FF47A7019F089FFBFF3A9
:107B60004F8F1249124BCA6802F4E0621343CB6094
:107B7000BFF34F8F00BFFDE7688E0400C498040078
:107B8000CC980400303F002008990400E0980400DD
:107B9000843600202C3F0020203F00201E3F002084
:107BA000DC360020BC9604003C99040000ED00E0A7
:107BB0000400FA0530B583B06C4620464FF2A001B0
:107BC00017F098F90B4D0C4894E8060017F078F977
:107BD00020464FF2A10117F08DF994E806002846DF
:107BE00016F022FB2846054A05491DF0B5FA03B0F8
:107BF00030BD00BF2C3F00207C3F0020003600201D
:107C0000D1DD030070B5174E174C0546304617F00E
:107C100039F920461A2116F059FB11221146204647
:107C200016F06CFB2046592116F056FB2046012227
:107C30000E4916F069FB204616F0D2F8204658226D
:107C40000B4916F085FB06F1080393E80300094B86
:107C5000B2882B6005F10803AA8083E80300284658
:107C600070BD00BF7C3F00202C3F0020717A0200D5
:107C7000843600202CA7040070B51D4B1325172156
:107C800019220B2482B018605D60D9601A615C61B2
:107C900001221A204FF0FF31002418261B25C3E9CA
:107CA0000650C3E9081183F8282083F82A209E6033
:107CB00083F8294083F82C4000F062F800F0F0F8D7
:107CC00002A9022221F8024D4FF4E86000F0BEFA4A
:107CD000BDF8063042F21442934206D044F23440DA
:107CE000181A18BF012002B070BD204602B070BD46
:107CF0008C3F0020054B002202204FF0FF3118601E
:107D0000C3E908119A6283F82C2070478C3F002049
:107D1000024A034B10681B6858407047600000100F
:107D2000640000100A4A0B4B1168C1711168090AFE
:107D3000817151884171D27802711A68C2701A68D3
:107D4000120A82705A884270DB780370704700BF55
:107D5000600000106400001000207047704700BFF2
:107D6000704700BF38B5054CA4F1500554F8083DE4
:107D70001B6820469847AC42F8D138BD1840002017
:107D8000704700BF70B5214C257882B0ADB16378E3
:107D90006BB3A3786BB3E3786BB323796BB363797D
:107DA0006BB3A3796BB3E3796BB3237A23B1637AB3
:107DB000092513B102B070BD082506464378144862
:107DC00031610A460121615500EBC50035703BB1B8
:107DD0000023009342F210711CF018FD02B070BD38
:107DE000009142F210711CF011FD02B070BD01252E
:107DF000E3E70225E1E70325DFE70425DDE70525C5
:107E0000DBE70625D9E70725D7E700BFBC3F002001
:107E1000C83F002010B5064C037804EBC30420468D
:107E20001CF03CFD2046BDE810401CF003BD00BF27
:107E3000C83F00200078024B03EBC0001CF02EBDB1
:107E4000C83F002003780448044A00EBC30042F80E
:107E500023101CF04FBD00BFC83F00201840002079
:107E600019F0FABD10B5044619F0F6FD001B10BD5F
:107E700038B5084C04F15005204608341CF0BEFC0F
:107E8000AC42F9D1044A05490020BDE838401DF054
:107E900063B900BFC83F002000360020657D0200A6
:107EA00070B5304C304E03F021FF0025A0683570CE
:107EB00001211CF013FFA06801211CF051FF29468D
:107EC000A0691CF00BFF294660691CF007FF606881
:107ED00001211CF003FF606801211CF041FF94F8B0
:107EE0002C3023BB206A421C0CD0636A013309D0BA
:107EF00001211CF0F3FE0121606A1CF0EFFE94F8F2
:107F00002C500DB3012160681CF0E8FE0021606870
:107F10001CF026FF0A2019F0ABFD606801211CF05F
:107F20001FFF142019F0A4FD0023337070BD2946F3
:107F3000206A1CF0D3FE606A01211CF0CFFE2946A6
:107F4000606A1CF00DFFDDE7606A431CDAD0236A2B
:107F50000133D7D001211CF003FF2946206A1CF011
:107F6000FFFECFE78C3F002040400020024B01463F
:107F70000422586919F0B8BB8C3F002010B50B4C97
:107F8000012160681CF0AAFE002160681CF0E8FE78
:107F90000A2019F06DFD606801211CF0E1FE14203B
:107FA00019F066FD024B00221A7010BD8C3F0020B4
:107FB0004040002038B5074D40F2E93403E019F0A5
:107FC00057FD013C04D0A8691CF0DCFE0128F6D066
:107FD00038BD00BF8C3F002038B5174B174D00242B
:107FE0001C70FFF7BBFE2146A8681CF0B9FE144BBD
:107FF000144893E806001DF019F8C02111481DF03F
:1080000069F821460F481DF065F80E481DF05CF830
:10801000A86801211CF0A4FE40F2E93403E019F045
:1080200027FD013C04D0A8691CF0ACFE0128F6D065
:10803000BDE83840FFF794BE404000208C3F002050
:1080400044400020DC4200202DE9F0411C4E154642
:1080500080460C4603F05CFAB06800211CF080FEFC
:10806000184B194893E806001CF0E0FF41461648FB
:108070001DF030F85DB1013D134F14FA85F5013C58
:1080800014F8011F38461DF025F8AC42F8D10E480F
:108090001DF01AF80121B0681CF062FEB8F1840FDF
:1080A0000BD040F2E93403E019F0E2FC013C04D0CB
:1080B000B0691CF067FE0128F6D0BDE8F08100BF72
:1080C0008C3F002044400020DC420020F8B51D4DCC
:1080D000164607460C4603F01BFAA86800211CF060
:1080E0003FFE194B194893E806001CF09FFF3946E4
:1080F00016481CF0EFFF002114481CF0EBFF66B19E
:10810000013E124F14FA86F6013C002138461CF05D
:10811000E1FF04F8010FB442F7D10C481CF0D4FF82
:108120000121A8681CF01CFE40F2E93403E019F0BC
:108130009FFC013C04D0A8691CF024FE0128F6D065
:10814000F8BD00BF8C3F002044400020DC420020EE
:10815000F8B51E4D074616460C4603F0D9F9A86837
:1081600000211CF0FDFD1A4B1A4893E806001CF094
:108170005DFF0D2117481CF0ADFF390A15481CF0B2
:10818000A9FFF9B213481CF0A5FF5EB1013E114FE3
:1081900014FA86F6013C14F8011F38461CF09AFFC9
:1081A000B442F8D10B481CF08FFF0121A8681CF0E5
:1081B000D7FD40F2E93403E019F05AFC013C04D049
:1081C000A8691CF0DFFD0128F6D0F8BD8C3F002027
:1081D00044400020DC42002070B5194D04460E4694
:1081E00003F096F9A86800211CF0BAFD154B16485B
:1081F00093E806001CF01AFF0D2113481CF06AFFDB
:10820000210A11481CF066FFE1B20F481CF062FF22
:1082100031460D481CF05EFF0B481CF055FFA86866
:1082200001211CF09DFD40F2E93403E019F020FC2F
:10823000013C04D0A8691CF0A5FD0128F6D070BD52
:108240008C3F002044400020DC420020F8B5214D46
:10825000074616460C4603F05BF9A86800211CF09F
:108260007FFD1D4B1D4893E806001CF0DFFE1D211D
:108270001A481CF02FFF390A18481CF02BFFF9B2DE
:1082800016481CF027FF002114481CF023FF66B19C
:10829000013E124F14FA86F6013C002138461CF0CC
:1082A00019FF04F8010FB442F7D10C481CF00CFF81
:1082B0000121A8681CF054FD40F2E93403E019F0F4
:1082C000D7FB013C04D0A8691CF05CFD0128F6D066
:1082D000F8BD00BF8C3F002044400020DC4200205D
:1082E00070B51C4D044603F013F9A86800211CF07A
:1082F00037FD194B194893E806001CF097FE1D2125
:1083000016481CF0E7FE210A14481CF0E3FEE1B217
:1083100012481CF0DFFE002110481CF0DBFE00219B
:108320000E481CF0D7FE06460C481CF0CDFEA8688F
:1083300001211CF015FD40F2E93403E019F098FB2F
:10834000013C04D0A8691CF01DFD0128F6D0304680
:1083500070BD00BF8C3F002044400020DC42002064
:10836000F8B51D4D164607460C4603F0D1F8A8682F
:1083700000211CF0F5FC194B194893E806001CF08D
:1083800055FE0E2116481CF0A5FEB6B2394614481B
:108390001CF0A0FE5EB1013E114F14FA86F6013CBE
:1083A00014F8011F38461CF095FEB442F8D10C4871
:1083B0001CF08AFE0121A8681CF0D2FC40F2E934CE
:1083C00003E019F055FB013C04D0A8691CF0DAFC6D
:1083D0000128F6D0F8BD00BF8C3F002044400020AB
:1083E000DC420020F8B51F4D164607460C4603F048
:1083F0008FF8A86800211CF0B3FC1B4B1B4893E8C6
:1084000006001CF013FE1E2118481CF063FE3946BE
:1084100016481CF05FFEB6B2002114481CF05AFE4C
:1084200066B1013E114F14FA86F6013C0021384630
:108430001CF050FE04F8010FB442F7D10B481CF0B9
:1084400043FE0121A8681CF08BFC40F2E93403E0F4
:1084500019F00EFB013C04D0A8691CF093FC012824
:10846000F6D0F8BD8C3F002044400020DC420020C4
:10847000022103F047BA00BF034B1B68022B0CBF5D
:1084800002200120704700BF8C3F00202DE9F84FEB
:10849000B44C94F82A3053B994F82C300BB9BDE899
:1084A000F88F606A0121BDE8F84F1CF059BCAE4F4F
:1084B0003B78002B60D0AD4E40F2E93503E019F077
:1084C000D7FA013D04D0A0691CF05CFC0128F6D06D
:1084D0000021A0681CF044FC96E80600A4481CF0AB
:1084E000A5FD1D21A2481CF0F5FD0921A0481CF0A6
:1084F000F1FD20219E481CF0EDFD00219C481CF060
:10850000E9FD00219A481CF0E5FD074698481CF05B
:10851000DBFD0121A0681CF023FC40F2E93503E0FB
:1085200019F0A6FA013D04D0A0691CF02BFC01282B
:10853000F6D0A06800211CF013FC96E806008C48D9
:108540001CF074FD0D218A481CF0C4FD09218848E7
:108550001CF0C0FD202186481CF0BCFD47F008013E
:10856000C9B283481CF0B6FD81481CF0ADFD012165
:10857000A0681CF0F5FB8FE740F2E93503E019F045
:1085800077FA013D04D0A0691CF0FCFB0128F6D06D
:10859000764EA06800211CF0E3FB96E806007448C4
:1085A0001CF044FD1D2172481CF094FD052170480B
:1085B0001CF090FD80216E481CF08CFD00216C4861
:1085C0001CF088FD00216A481CF084FD8346684841
:1085D0001CF07AFD0121A0681CF0C2FB40F2E935D5
:1085E00003E019F045FA013D04D0A0691CF0CAFB74
:1085F0000128F6D00021A0681CF0B2FB96E8060026
:108600005B481CF013FD1D2159481CF063FD05213A
:1086100057481CF05FFD832155481CF05BFD00218D
:1086200053481CF057FD002151481CF053FD824671
:108630004F481CF049FD0121A0681CF091FB40F25D
:10864000E93503E019F014FA013D04D0A0691CF0EB
:1086500099FB0128F6D00021A0681CF081FB96E868
:10866000060043481CF0E2FC1D2141481CF032FD8D
:1086700005213F481CF02EFD84213D481CF02AFDB9
:1086800000213B481CF026FD002139481CF022FD4A
:10869000814637481CF018FD0121A0681CF060FBE2
:1086A00040F2E93503E019F0E3F9013D04D0A06997
:1086B0001CF068FB0128F6D00021A0681CF050FBDC
:1086C00096E806002A481CF0B1FC1D2128481CF041
:1086D00001FD052126481CF0FDFC852124481CF0E5
:1086E000F9FC002122481CF0F5FC002120481CF078
:1086F000F1FC80461E481CF0E7FC0121A0681CF03C
:108700002FFB40F2E93503E019F0B2F9013D04D046
:10871000A0691CF037FB0128F6D00021A0681CF0EE
:108720001FFB96E8060012481CF080FC0D21104843
:108730001CF0D0FC05210E481CF0CCFC80210C481C
:108740001CF0C8FC4BF00801C9B209481CF0C2FC7F
:1087500007481CF0B9FC0121A0681CF001FB40F2A5
:10876000E9350BE08C3F00204040002044400020D1
:10877000DC42002019F07CF9013D04D0A0691CF016
:1087800001FB0128F6D00021A0681CF0E9FA96E868
:10879000060052481CF04AFC0D2150481CF09AFC7F
:1087A00005214E481CF096FC83214C481CF092FC9D
:1087B0000AF0F70149481CF08DFC48481CF084FC85
:1087C0000121A0681CF0CCFA40F2E93503E019F071
:1087D0004FF9013D04D0A0691CF0D4FA0128F6D06D
:1087E0000021A0681CF0BCFA96E806003B481CF08B
:1087F0001DFC0D2139481CF06DFC052137481CF08B
:1088000069FC842135481CF065FC09F0F701334808
:108810001CF060FC31481CF057FC0121A0681CF0E2
:108820009FFA40F2E93503E019F022F9013D04D046
:10883000A0691CF0A7FA0128F6D00021A0681CF05E
:108840008FFA96E8060025481CF0F0FB0D2123481E
:108850001CF040FC052121481CF03CFC85211F48F0
:108860001CF038FC08F0F7011C481CF033FC1B48D6
:108870001CF02AFC0121A0681CF072FA40F2E935D4
:1088800003E019F0F5F8013D04D0A0691CF07AFA74
:108890000128F6D00021A0681CF062FA96E80600D4
:1088A0000E481CF0C3FB0D210C481CF013FC0921E1
:1088B0000A481CF00FFC202108481CF00BFC062184
:1088C00006481CF007FC05481CF0FEFB0121A068CF
:1088D0001CF046FA01233B70EEE500BFDC420020AD
:1088E0002DE9F84FB44C94F82A3053B994F82C3051
:1088F0000BB9BDE8F88F606A0021BDE8F84F1CF0A5
:108900002FBAAE4F3B78002B5FD0AD4E40F2E93529
:1089100003E019F0ADF8013D04D0A0691CF032FA73
:108920000128F6D00021A0681CF01AFA96E806008B
:10893000A4481CF07BFB1D21A2481CF0CBFB0921A5
:10894000A0481CF0C7FB20219E481CF0C3FB00215F
:108950009C481CF0BFFB00219A481CF0BBFB07465B
:1089600098481CF0B1FB0121A0681CF0F9F940F215
:10897000E93503E019F07CF8013D04D0A0691CF052
:1089800001FA0128F6D0A06800211CF0E9F996E868
:1089900006008C481CF04AFB0D218A481CF09AFB0B
:1089A000092188481CF096FB202186481CF092FB88
:1089B00007F0F70183481CF08DFB82481CF084FB14
:1089C0000121A0681CF0CCF990E740F2E93503E002
:1089D00019F04EF8013D04D0A0691CF0D3F901282C
:1089E000F6D0774EA06800211CF0BAF996E8060090
:1089F00074481CF01BFB1D2172481CF06BFB052109
:108A000070481CF067FB80216E481CF063FB00215E
:108A10006C481CF05FFB00216A481CF05BFB83463E
:108A200068481CF051FB0121A0681CF099F940F244
:108A3000E93503E019F01CF8013D04D0A0691CF0F1
:108A4000A1F90128F6D00021A0681CF089F996E868
:108A500006005C481CF0EAFA1D215A481CF03AFB5B
:108A6000052158481CF036FB832156481CF032FB88
:108A7000002154481CF02EFB002152481CF02AFB18
:108A8000824650481CF020FB0121A0681CF068F9C8
:108A900040F2E93503E018F0EBFF013D04D0A06996
:108AA0001CF070F90128F6D00021A0681CF058F9DC
:108AB00096E8060043481CF0B9FA1D2141481CF015
:108AC00009FB05213F481CF005FB84213D481CF0B3
:108AD00001FB00213B481CF0FDFA002139481CF045
:108AE000F9FA814637481CF0EFFA0121A0681CF022
:108AF00037F940F2E93503E018F0BAFF013D04D040
:108B0000A0691CF03FF90128F6D00021A0681CF0F4
:108B100027F996E806002B481CF088FA1D21294801
:108B20001CF0D8FA052127481CF0D4FA85212548E5
:108B30001CF0D0FA002123481CF0CCFA0021214877
:108B40001CF0C8FA80461F481CF0BEFA0121A0683C
:108B50001CF006F940F2E93503E018F089FF013D09
:108B600004D0A0691CF00EF90128F6D00021A068FD
:108B70001CF0F6F896E8060012481CF057FA0D2192
:108B800010481CF0A7FA05210E481CF0A3FA80211A
:108B90000C481CF09FFA4BF00801C9B209481CF0C0
:108BA00099FA08481CF090FA0121A0681CF0D8F846
:108BB00040F2E9350CE000BF8C3F0020404000202F
:108BC00044400020DC42002018F052FF013D04D058
:108BD000A0691CF0D7F80128F6D00021A0681CF08D
:108BE000BFF896E8060052481CF020FA0D215048C4
:108BF0001CF070FA05214E481CF06CFA83214C4899
:108C00001CF068FA0AF0F70149481CF063FA48487A
:108C10001CF05AFA0121A0681CF0A2F840F2E935D4
:108C200003E018F025FF013D04D0A0691CF0AAF86C
:108C30000128F6D00021A0681CF092F896E8060002
:108C40003B481CF0F3F90D2139481CF043FA05218B
:108C500037481CF03FFA842135481CF03BFA09F0F4
:108C6000F70133481CF036FA31481CF02DFA012187
:108C7000A0681CF075F840F2E93503E018F0F8FE42
:108C8000013D04D0A0691CF07DF80128F6D0002138
:108C9000A0681CF065F896E8060025481CF0C6F9A7
:108CA0000D2123481CF016FA052121481CF012FA68
:108CB00085211F481CF00EFA08F0F7011C481CF033
:108CC00009FA1B481CF000FA0121A0681CF048F8C2
:108CD00040F2E93503E018F0CBFE013D04D0A06975
:108CE0001CF050F80128F6D00021A0681CF038F8DC
:108CF00096E806000E481CF099F90D210C481CF06E
:108D0000E9F909210A481CF0E5F9202108481CF07E
:108D1000E1F9062106481CF0DDF905481CF0D4F9FC
:108D20000121A0681CF01CF801233B70EEE500BF98
:108D3000DC42002038B50A4C94F82C5075B9606AB2
:108D4000431C0BD0236A013308D001211CF008F822
:108D50002946206ABDE838401CF002B838BD00BF83
:108D60008C3F002010B5094C94F82C1069B9606A4A
:108D7000431C0AD0236A013307D01BF0F1FF206A9D
:108D80000121BDE810401BF0EBBF10BD8C3F00205F
:108D9000034B044A1A600121002259711A7170476D
:108DA0004440002080841E00704700BF037883B1D8
:108DB000012B0DD1427852B90C4A117839B182F8A1
:108DC0004830037A82F84930437A82F84A30704753
:108DD0007047074A437812681BB19369002BF6D09D
:108DE00018471369002BF2D0184700BF98400020A5
:108DF0007040002043783BBB2DE9F041B14C257811
:108E00008AB025B1B4F846300133A4F84630437B2C
:108E1000BBB1C378E02B18D0027B81688DF8193084
:108E200000248DF81820A84B8C541B68027C8DF808
:108E30001C208168C289DB680591ADF81A2005A85D
:108E400098470AB0BDE8F081704735B9037B042B21
:108E50007DD09E48FEF7EEFFF3E7826813786370DB
:108E6000072BEED8DFE803F0403D396E562F0E0495
:108E7000037B032B00F0D180072B00F0E18001235E
:108E80006370DEE7924B1B788DF80C3000250223CF
:108E900002A8A570A4F8465025708DF8083005F09A
:108EA0000DF98C4B187805F055FE8B4B8DF814504E
:108EB0000FCB0AAD05E90F0005A805F00DFB2378DF
:108EC000002BBED1C5E70AA8012300F8143D05F028
:108ED00003FB2378002BB4D1BBE70123A37063709D
:108EE000AFE702232371ACE7794A12788DF8182096
:108EF0000023022205A8A4F8463023708DF8142020
:108F000005F0DCF8734B187805F024FE2378002B6D
:108F100097D19EE7037B2371F22B4FF004011D468E
:108F200028BFF225012B61718BD96C49012300E028
:108F30008268D25C0133DCB20132AC4201F8012F0D
:108F4000F6D37EE700220123A270637079E783687D
:108F50001A78012A7FF47DAF5A78012A7FF479AF1D
:108F60009A78012A7FF475AFDE78012E7FF471AF15
:108F70000AAF4FF0020807F8208D3846A570A4F814
:108F8000465084F8485084F8495084F84A50267076
:108F9000667084F8048004F0B1FF4D4B9DF80C20FE
:108FA0001A7038468DF808808DF80C6005F086F848
:108FB000284605F0CFFD4A494448FEF7E3FE41F25A
:108FC00088314248FEF73EFF94F84830002B62D0CB
:108FD00040F2035194F8492094F84A3084F84850FC
:108FE0006670A180A271E37101A9207904F0F8FEF6
:108FF000002841D000238DF814300793ADF82030BD
:109000008DF822303148FEF705FF05A805F062FB18
:109010002378002B7FF415AF1BE702238DF8143063
:109020005178937805A843EA0123ADF8183005F08C
:1090300053FA237801226270002B7FF402AF08E715
:1090400003238DF814305178937843EA0123ADF867
:1090500018301379D07851791B0243EA00430B434F
:10906000642101FB03F3079393798DF8203005A861
:1090700005F032FA2378DDE7A37822799BB9E02066
:1090800016498DF81430ADF820208DF822308DF877
:1090900018000791B6E76378012B23D0042BA3D1E6
:1090A00001236370A0E70125E0200C49ADF82020E2
:1090B0004FF400638DF814508DF818000791ADF847
:1090C00022309FE79840002070400020E4400020BC
:1090D0009440002022410020744000209D40002048
:1090E000F5900200B4F84630A37102221B1263719E
:1090F000227179E710B52E4C94F8483086B013B33E
:10910000002340F2035094F8491094F84A2084F860
:1091100048300123A080A171E2716370032001A98E
:1091200004F05EFEE8B100238DF808300493ADF83A
:1091300014308DF816301F48FEF76CFE02A805F0BB
:10914000C9FA06B010BD6378012B28D0042B08BFE4
:109150000123207908BF637001A904F041FE0028B3
:10916000E1D1A37822795BB9E02013498DF808306A
:10917000ADF814208DF816308DF80C000491DAE764
:109180000124E0200C49ADF814204FF400638DF861
:1091900008408DF80C000491ADF81630CBE7B4F818
:1091A0004630A37102201B1263712071B7E700BF24
:1091B00098400020E44000209D4000200246024BE1
:1091C0000068516803C37047044100200246024B07
:1091D0000068516803C37047FC40002010B4034688
:1091E000044C59689A680068DB680FC45DF8044B4A
:1091F000704700BFEC36002010B40346044C596899
:109200009A680068DB680FC45DF8044B704700BFC4
:109210000C37002010B40346044C59689A68006863
:10922000DB680FC45DF8044B704700BFFC360020BC
:10923000014B1860704700BF1841002000B5494B32
:109240001B78013BDBB285B00022082BCDE901225F
:10925000039296BF444A0123D35C10B3834223D3C5
:1092600001380B2820D8DFE800F0233B42484F5557
:109270005C62696F76060B2B1DD94FF47F43ADF806
:109280000E30062201A9394800F032FC062201A95D
:10929000374800F02DFC374801A9062200F028FCD1
:1092A000012005B05DF804FB002005B05DF804FB6B
:1092B000FF22ADF80420022BE3D801A901222B489C
:1092C00000F016FC01A90122294800F011FC01A9B7
:1092D0000122284800F00CFC012005B05DF804FBD9
:1092E000012BEAD94FF47F42ADF80420E3E7022BCB
:1092F000E3D9FF23ADF80630C3E7032BDBD94FF4E6
:109300007F43ADF80630BCE7042BD4D9FF23ADF87A
:109310000830B6E7052BCED94FF47F43ADF80830BF
:10932000AFE7062BC7D9FF23ADF80A30A9E7072B13
:10933000C1D94FF47F43ADF80A30A2E7082BBAD960
:10934000FF23ADF80C309CE7092BB4D94FF47F43D1
:10935000ADF80C3095E70A2BADD9FF23ADF80E30F0
:109360008FE700BF24410020A09904004C4000205A
:1093700058400020644000202DE9F04FD9B00EADD8
:1093800085E806000646AD4CAD4ADFF800C326600E
:1093900095E80300AB4FAC4E91801060C1F30721FC
:1093A000639A8CF80030397095F9019032709DF80D
:1093B0008881002B00F06E81A448A54990F807C071
:1093C00043780278CDF814C090F806C0CDF810C0EC
:1093D00090F805C0CDF80CC090F804C0CDF808C0D6
:1093E00090F803C08078CDE9000C38A81DF0BAFCD5
:1093F0009848994990F807C043780278CDF814C08E
:1094000090F806C0CDF810C090F805C0CDF80CC09B
:1094100090F804C0CDF808C090F803C08078CDE97A
:10942000000C28A81DF09EFC8C488D4990F803C0C4
:1094300043780278CDF804C090F802C0CDF800C09F
:1094400090F80FC0CDF834C090F80EC0CDF830C001
:1094500090F80DC0CDF82CC090F80CC0CDF828C005
:1094600090F80BC0CDF824C090F80AC0CDF820C009
:1094700090F809C0CDF81CC090F808C0CDF818C00D
:1094800090F807C0CDF814C090F806C0CDF810C011
:1094900090F805E090F804C0CDF808C048A8CDF8D1
:1094A0000CE01DF05FFC23686E491C686E4A6F4833
:1094B0006F4B0C606F4C10605360104694604346D5
:1094C000327804F00DFB8346002840F079816A4C25
:1094D0002B78237120460223237004F0EFFD142320
:1094E000204684F80490237004F0E8FD15232046FC
:1094F00084F80490237004F0E1FD16222B79227089
:10950000204623714FF0070A04F0D8FDAB78237191
:1095100020465A4D84F800A004F0D0FD204684F87F
:1095200000B084F8048004F0C9FD3878DFF8609159
:1095300005F010FB95E8070010AB83E80700032057
:109540000ECB04F0ABFF05F10C0393E8070013AB5F
:1095500083E8070004200ECB04F0A0FF05F11803F8
:1095600093E8070016AB83E8070005200ECB04F054
:1095700095FF05F1240393E8070019AB83E8070082
:1095800006200ECB04F08AFF05F1300393E80700B4
:109590001CAB83E8070050460ECB04F07FFF05F1BB
:1095A0003C0393E807001FAB83E8070048350ECB68
:1095B000082004F073FF95E8070022AB83E807005A
:1095C00003250ECB092004F069FF0B232046C4F8C5
:1095D00004902572237004F071FD0A232046C4F81C
:1095E00004902572237004F069FD3378092B00F292
:1095F000EA80DFE803F005ADCC0505050505ADAD56
:1096000058AD0024FF23CDF89A40CDF89640ADF830
:109610009E4025F8CC3D01222946194800F068FA01
:1096200029460122174800F063FA1748294601220B
:1096300000F05EFA204659B0BDE8F08F704000207F
:109640001C4100202241002024410020FC40002039
:10965000AC99040004410020DC990400EC360020A1
:109660000C9A04008440002088400020A98D02004C
:10967000F58D0200AD8D02000C4100204C990400D4
:109680004C4000205840002064400020234100202E
:1096900008E6D3334D484E4990F807C04378027826
:1096A000CDF814C090F806C0CDF810C090F805C0F1
:1096B000CDF80CC090F804C0CDF808C090F803C0F5
:1096C0008078CDE9000C28A81DF04CFB41484249A8
:1096D00090F803C043780278CDF804C090F802C037
:1096E000CDF800C090F80FC0CDF834C090F80EC08F
:1096F000CDF830C090F80DC0CDF82CC090F80CC05B
:10970000CDF828C090F80BC0CDF824C090F80AC05E
:10971000CDF820C090F809C0CDF81CC090F808C062
:10972000CDF818C090F807C0CDF814C090F806C066
:10973000CDF810C090F805E090F804C0CDF808C04E
:1097400038A8CDF80CE01DF00DFB244824496DE647
:1097500058AD00244FF47F43CDF89A40CDF89640A1
:10976000ADF89E4025F8CC3D062229461D4800F064
:10977000BFF9294606221C4800F0BAF929460622FC
:109780001A4800F0B5F9204659B0BDE8F08FFF2324
:10979000002425A906221348ADF89E30CDE92544C2
:1097A000ADF89C4000F0A4F925A906220E4800F06F
:1097B0009FF90E4825A9062200F09AF920463AE7BB
:1097C0004FF0FF3037E7002035E700BF04410020AD
:1097D000DC9904000C370020649A0400FC36002059
:1097E000BC9A04004C4000205840002064400020F7
:1097F00030B52249224A234B234DD878234B244CA1
:109800002D7887B0CDE9021204938DF8140006ABD1
:1098100013E90F0084E80F0000238DF8043045BBE6
:109820001C4C032320462370656004F047FC1A4B50
:1098300004221B6822702046636004F03FFC05226E
:10984000164B22702046636004F038FC0622144B4D
:1098500022702046636004F031FC0123204623700F
:10986000237104F02BFC0F4B1B681B69984707B052
:1098700030BD01A804F030FE07B030BD0441002027
:10988000FC4000201C41002023410020EC36002039
:10989000744000200C410020184100200C370020AB
:1098A000FC3600207040002000B585B004A80123DC
:1098B00000F80C3D04F022FB9DF8080005B05DF8AF
:1098C00004FB00BF1F4B1B78002B37D130B587B08E
:1098D0000D46044601A9007904F082FA58BB1A4BE0
:1098E000607993F9013021792268D5B1174C8DF850
:1098F0000C002078ADF81410002814BF08200120B7
:10990000012104928DF816308DF817008DF808109B
:1099100002A804F0DFFE003018BF0120404207B06B
:1099200030BD8DF808508DF80C00ADF8141004927D
:109930008DF81630ECE74FF0FF30F0E74FF0FF30D6
:10994000704700BF984000201C41002024410020A7
:1099500070B584B004AD002405F80C4D06462846C9
:1099600004F0CCFA9DF80830B34213D0012E14D085
:1099700022D3022E1BD11C1C18BF0124284664428E
:109980008DF8086004F09AFB88B9144B1B683046C8
:109990005B699847204604B070BD012BFAD0284679
:1099A0008DF8086004F08AFB04460028EDD04FF0E3
:1099B000FF34204604B070BD1BB91C46204604B0DD
:1099C00070BD28468DF8084004F078FB0446002856
:1099D000EDD1024B1B685B699847DBE770400020C4
:1099E00005F0CCB8014B00225A707047E4400020CB
:1099F000884204DB9042CCBF002001207047002049
:109A0000704700BF0B09B3EB121F12D8914210D25E
:109A10001BB210B4012230F8134001F00F0102FA1A
:109A200001F124EA010120F813105DF8044B1046FF
:109A300070470020704700BF002856D0914255D291
:109A4000531E5B1A51FA83F330B4841C00EB4101BE
:109A500004EB4304002031F8025B05F00103AA0780
:109A600048BF01336A0744BF0133DBB22A0744BF52
:109A70000133DBB2EA0644BF0133DBB2AA0644BFBE
:109A80000133DBB26A0644BF5A1CD3B22A0644BF74
:109A90005A1CD3B2EA0544BF5A1CD3B2AA0544BF2C
:109AA0005A1CD3B26A0544BF5A1CD3B22A0544BF1C
:109AB0005A1CD3B2EA0444BF5A1CD3B2AA0444BF0E
:109AC0005A1CD3B26A0444BF5A1CD3B22A0405D428
:109AD00003448C42D8B2BED130BC70475A1C8318A4
:109AE0008C42D8B2B7D130BC704770470020704765
:109AF000C0B3B9B3B2B32DE9F041031D0C1DA042B0
:109B000038BF99422FD30D2A2DD9C1F340050DB18D
:109B10000B880380A2EB050E6C005FFA8EFE0E1917
:109B20004FEA5E08044400230133DFB256F804CB49
:109B300044F804CBB845F7D80EF0FE031D449E450B
:109B4000EDB20DD02BB20135EDB231F8134020F853
:109B50001340AA4204D92DB231F8153020F815303F
:109B6000BDE8F0817047531EDBB201EB43030238BE
:109B7000023931F8022F20F8022F9942F9D1EFE78C
:109B800000B94A608A6070472DE9F047002B4DD03C
:109B9000013BDBB202F110070D460646144607EB07
:109BA00003174FF0FF384FF0000946B1E5B9E56003
:109BB000A8461034A742F8D14046BDE8F087606857
:109BC000FEF750F9824645BB6068FEF74BF9E36843
:109BD000834206D9002BECD01B1A984528BF984623
:109BE000E7E7C4F80C90E4E7D4E9020AFEF73AF993
:109BF0008245F6D9D4F80CA0BAF1000FD9D0A068EC
:109C0000FEF730F9AAEB00004045D2D2D4E90208B1
:109C1000FEF728F9A8EB0008CBE7A068FEF722F9C9
:109C20008245D1D2A068FEF71DF9D0E74FF0FF388A
:109C30004046BDE8F08700BF0378032B01D0002029
:109C4000704790F9013003F00F02C3F303138A70D9
:109C50004B7083788B80C27843EA02238B80037930
:109C6000C3F3021203F00F03CA700B700520704794
:109C70002DE9F04F0546407895F902E095F90390FB
:109C800085B0A0B9B5F9026095F905E095F906909F
:109C900040F60F74A6420AD095F907A04C4681F809
:109CA00000E0147083F800A005B0BDE8F08F2878BC
:109CB00095F904A000285DD095F91040744514DD95
:109CC00000F0FD0095F9194095F918604C4504DC49
:109CD0004E45B8BF00F0FB004C460728DFD1BAF173
:109CE000000FDCD195F907A0D9E795F9114074452B
:109CF000E6DB2C7A0094002CE2D0EE686F69CDF898
:109D00000490002402920393A346A1463A463346A8
:109D10005FFA89F40BEB4B0633F8148002EB8606EE
:109D2000002448FA04F717F0010F04F101040CD0E5
:109D300096F808C04CF303170CF00F0C7FB2E64501
:109D400007F00F0701DBBE4510DD102C06F10C06F5
:109D5000E7D10BF1100B009C5FFA8BFB5C4509F11E
:109D60000109D5D8DDE90192039BA9E7DDE901925C
:109D7000039BA7E74C4692E7012370B503FA00F076
:109D80000E461BF021FD044630460D461BF00CFD2F
:109D900002460B46204629461BF0AAFE0022034B32
:109DA0001BF07CFD41EC100B70BD00BF00408F40EC
:109DB00008B51BF0F9FC02460B46002002491BF0D7
:109DC00097FE41EC100B08BD000020402DE9F84F34
:109DD00057EC106B0446043840001D4692468B46F3
:109DE0001BF0F2FC32463B461BF058FD80464FEA22
:109DF0004B0089461BF0D8FC02460B4640464946BC
:109E00001BF096FB32463B461BF072FE41EC100BFA
:109E10001BF0AAF951EC100B1CF002F8844238BF79
:109E200004462C6000221A4B304639461BF036FDA2
:109E30008046204689461BF0B7FC002204460D46AA
:109E4000144B304639461BF029FD02460B4620468E
:109E500029461BF023FD02460B46404649461BF0AF
:109E600065FB044650460D461BF09EFC0B46024621
:109E7000294620461BF05AFB41EC100B1BF074F9ED
:109E800051EC100B1BF0A4FF0A9B1860BDE8F88F83
:109E9000000010400000E03F400007EE900A00B5CF
:109EA000F8EE677A83B030EE670A30EE600A1BF096
:109EB000F3FAFDEEC07ACDED017A9DF9040003B00E
:109EC0005DF804FBD0E9002170B4C37A447A03EB57
:109ED000430302EB830300255B7A1B01CA18CB5AAC
:109EE000D560817A4CB9C568124CA5420ED864245D
:109EF000A9B9017A99B970BC70470029FBD00169F2
:109F0000013B01FB03F3D36070BC70470A4E42F281
:109F10001074B54298BF4FF47A740029E9D0A34277
:109F200038BF23460169013B01FB03F3D36070BCDA
:109F3000704700BF7FEE36007F3F5C020120704714
:109F4000034B93F82930002B14BF352003207047B2
:109F50008C3F0020002001F085BB00BF194B10B5DD
:109F60001860194801F080FA002001F07BFB174BC4
:109F700093F82B3013BB012001F006FC00210846AA
:109F800001F036FE0421002001F0BCFC00234FF656
:109F9000FF711A46084601F003FC0D4A0D4C0E49AC
:109FA0000123104653706370FDF7ECFE20460B4909
:109FB000FDF7E8FE0A4B00221A7010BD002001F0E8
:109FC000E3FBDBE7CC42002091A102008C3F0020A4
:109FD000B44200204042002061A1020079A10200A9
:109FE000274100200B4B10B518600B480B4C01F0BB
:109FF00081FA0B4A0B490123104653706370FDF739
:10A00000C1FE20460849FDF7BDFE084B00221A702C
:10A0100010BD00BFCC42002091A1020040420020B0
:10A02000B442002061A1020079A102002741002072
:10A0300008B501F061FA0438C0B2032896BF024B9C
:10A040000020185C08BD00BF149B040001F0DCBBBD
:10A05000FEF746B9FEF7C0B838B50C460546FEF720
:10A0600081FE40F2012100231A46084601F098FBC8
:10A0700001F042FC0C4B01280C480CBF83F8274030
:10A0800083F8204001F002FD21462846002201F01D
:10A0900081FA074B07481968FDF7D4FE0548BDE86B
:10A0A0003840FDF7B7BE00BF584200207042002084
:10A0B000B0420020B442002008B54FF0040001F087
:10A0C000BDFA0220BDE8084017F0D2BC38B50D46F5
:10A0D00000234FF6FF7104461A46084601F060FB64
:10A0E00029462046BDE8384001F006BB01F05EBDC0
:10A0F00008B5FEF71FFE00234FF4C0711A4608464C
:10A1000001F04EFBBDE8084001F014BB38B50D4628
:10A11000144601F079FB2846FEF7AAF901F016FB78
:10A1200020461BF051FB084B084C00221BF0B6FBED
:10A130001BF076FE01462046FDF784FE2046BDE872
:10A140003840FDF767BE00BF00408F40B44200209A
:10A1500008B501F05BFD08BDFDF7FABFFEF776B864
:10A1600008B5FDF7FBFD034B01221A70BDE808405E
:10A17000FDF7F6BDAD42002008B5FDF7EFFD034B3E
:10A1800001221A70BDE80840FDF7EABDAC4200208C
:10A1900008B5FDF7E3FD034B01221A70BDE8084046
:10A1A000FDF7DEBD2741002070B57C4C237882B0DE
:10A1B00023BB7B4B1A789AB97A4B1A780AB902B04A
:10A1C00070BD002278481A70FDF734FE774B1B688B
:10A1D000002BF4D05B68002BF1D0984702B070BD23
:10A1E000002273481A70FDF725FE704B1B68002B88
:10A1F000E2D0DB68002BDFD09847DDE7FDF7AEFD4E
:10A2000000232370FDF7ACFD01F0ECFA04464FF695
:10A21000FF7001F049FDE10737D4A20752D42606AA
:10A2200042D4A5051AD4600705D5604B1B6813B14D
:10A230005B6903B19847A106BBD55D48FDF7FAFD00
:10A240005C4B1B78002B00F09080584B1B68002B58
:10A25000AFD0DB68002BACD09847AAE701F04CF9EF
:10A26000042870D001F048F90528DCD15048FDF7EA
:10A27000E1FD012001F046F94C4B1B68002BDAD0C0
:10A28000DA68002A6DD09047CDE74748FDF7D2FD48
:10A29000012001F037F9454B1B68002BBDD01B682E
:10A2A000002BBAD09847B8E7012001F02BF93F4BBB
:10A2B0001B68002BB5D0DB69002BB2D0C4F30020A3
:10A2C0009847AEE73A48FDF7B5FD3A4B1D78002DAB
:10A2D0004FD0FF22002138481BF0B5FE630616D58B
:10A2E000FF22002134481BF0AEFEFF220DF10701D2
:10A2F000314801F021F9314801F096FC2B4B1B68E5
:10A30000002B8CD01B69002B89D0984787E72B4DF9
:10A310002948FF220DF1070101F00EF9284601F04E
:10A3200083FC224B1B68002B3FF479AF9E68002E04
:10A330003FF475AF95F90D3095F90C209DF8071095
:10A340001D48B0476BE71848FDF774FD012001F088
:10A35000D9F8164B1B68002B3FF46DAF5A68002AE2
:10A3600091D162077FF567AF62E7012001F0CAF87B
:10A370006BE7012001F0C6F8294640F60210FDF710
:10A380002BFF40F64410FDF7ABFF40F00201C9B2CD
:10A3900040F64410FDF720FF9BE700BF2741002057
:10A3A000AC420020AD420020B4420020CC4200204C
:10A3B000404200203B4200203C4100202841002038
:10A3C00001280A480AD0C37F012B00D07047084BF0
:10A3D00080F820101830197001F058BB044B80F839
:10A3E00027101830197001F051BB00BF58420020EF
:10A3F0001D370020000000002DE9F04F884683B093
:10A40000002879D0012803D0002003B0BDE8F08FE8
:10A41000DFF8A8A1644A9AF851309AF850B0BAF817
:10A420002400043BCBF10C0103EB430301EB43039A
:10A4300002EBC303D3E900451BF0C6F90646CBEB9C
:10A4400048009AF828809AF82630073000EB8800F8
:10A45000012B4FEA800008BF14380F461BF0B4F9F7
:10A460009AF85330804689460BB1ABF1020B4FEAA4
:10A470008B001BF0A9F902460B46404649461BF0EB
:10A4800037FB41EC100B1AF06FFE9AF8520053ECB8
:10A49000102B00F003000430CDE900231BF094F9E9
:10A4A000DDE900231BF0FAF90022002380468946EB
:10A4B0001BF07AFC002864D03046394600223B4B22
:10A4C0001BF036F802460B46404649461BF030F872
:10A4D00022462B461BF0E2F931A3D3E900231BF0FF
:10A4E00027F841EC100B1AF0C7FE51EC100B1BF0D3
:10A4F00097FC03B0BDE8F08FDFF8C0A0BAF81A30BF
:10A500009AF81D0003EBD0001BF05EF99AF81F309B
:10A5100006460F46002493B3254D40461BF054F9E0
:10A5200032463B461BF004F822462B461BF000F84F
:10A530009AF82140022C02460B4627D010461946B5
:10A5400000221C4B1BF0AAF90446DAF844000D4621
:10A550001BF02AF902460B46204629461BF0C8FA92
:10A560000022154B1BF09AF941EC100B1AF00CFF6E
:10A5700051EC100B1BF054FC03B0BDE8F08F00252C
:10A58000CBE74FF000084FF0000995E700224FF0AD
:10A5900080431AF0CDFF02460B46CFE7AFF30080B1
:10A5A0002B8716D9CEF7EF3F489C04000080284047
:10A5B0000000F03F0000204000408F405842002043
:10A5C00010B50446FEF7B6FB00234FF6FF711A469E
:10A5D000084601F0E5F80F4B1B789BB12CB96FF0E2
:10A5E0007F40BDE8104001F055B821460A48FDF70C
:10A5F00029FC0948FDF70EFC6FF07F40BDE81040D4
:10A6000001F048B8054B1868BDE81040800101F022
:10A6100041B800BF3B420020404200203C420020A5
:10A6200000234FF6FF7110B51A460446084601F0A4
:10A63000B7F80F4B1B789BB12CB96FF07F40BDE88A
:10A64000104001F03DB821460A48FDF7FBFB0948E0
:10A65000FDF7E0FB6FF07F40BDE8104001F030B83F
:10A66000054B1868BDE81040800101F029B800BF13
:10A670003B420020404200203C4200200128F8B527
:10A68000044621D1284D01F027F92E786B78B3428A
:10A6900003D1264C01232370F8BD20466E7001F0D3
:10A6A0001BF92F786B78BB4217D1204C0123237004
:10A6B0001EBB14214FF4E860FDF78EFD242140F20B
:10A6C0004170FDF789FDE5E7002001F005F9164A24
:10A6D000164B002151701C70F8BD20466F70FFF7BB
:10A6E000CDFFAFB914214FF4E860FDF775FD2421CB
:10A6F00040F24170FDF770FDD7E734214FF4E86078
:10A70000FDF76AFD442140F24170FDF765FDC1E7A8
:10A7100034214FF4E860FDF75FFD442140F24170C1
:10A72000FDF75AFDC1E700BFD0420020D242002011
:10A730002DE9F84F0546884616461C4600F0DCFE1B
:10A740000438C0B2032803D85F4B1B5C002B45D1F3
:10A75000012D0CD15D4F284601F0BEF897F800900E
:10A760007B784B4546D15A4D01232B7007E00020E2
:10A7700001F0B2F8554A564B002151701D70404609
:10A7800001F042F8FEF7D6FA00234FF6FF711A46A1
:10A79000084601F005F84F4B1B782BB36FF07F4054
:10A7A00000F078FF012017F063F9FDF759FB05462B
:10A7B00004E001F02BFA00B2864213DB2846FDF7D5
:10A7C00051FB8442F5D801244FF0040000F036FF1D
:10A7D000022017F04DF92046BDE8F88F00242046EE
:10A7E000BDE8F88F0024EFE73B4B1868800100F0CC
:10A7F00051FFD7E7284687F8019001F06DF897F8E8
:10A8000000A07B78534510D1314D01232B70B9F155
:10A81000000F25D114214FF4E860FDF7DDFC242161
:10A8200040F24170FDF7D8FC9EE7284687F801A06A
:10A8300001F052F897F800B07B785B451BD1244DAE
:10A8400001232B70BAF1000F28D114214FF4E860D6
:10A85000FDF7C2FC242140F24170FDF7BDFCD4E7B6
:10A8600034214FF4E860FDF7B7FC442140F2417019
:10A87000FDF7B2FC78E7284687F801B0FFF7FEFE47
:10A88000BBF1000F15D114214FF4E860FDF7A4FCD3
:10A89000242140F24170FDF79FFCD0E734214FF4B2
:10A8A000E860FDF799FC442140F24170FDF794FC0B
:10A8B000ABE734214FF4E860FDF78EFC442140F211
:10A8C0004170FDF789FCBAE7149B0400D0420020D8
:10A8D000D24200203B4200203C4200202DE9F041C2
:10A8E000474C054601202570657000F0F5FF26787D
:10A8F0006378B3420FD1434C012323702DBB142145
:10A900004FF4E860FDF768FC242140F24170BDE897
:10A91000F041FDF761BC0120667000F0DDFF277893
:10A920006378BB421DD1374C01232370A6BB142191
:10A930004FF4E860FDF750FC242140F24170FDF730
:10A940004BFC01232370002DD9D034214FF4E86053
:10A95000FDF742FC442140F24170BDE8F041FDF7B3
:10A960003BBC0120677000F0B7FF94F8008063786B
:10A9700043451CD1234C012323705FBB14214FF4AA
:10A98000E860FDF729FC242140F24170FDF724FC2A
:10A9900001232370002ECAD034214FF4E860FDF764
:10A9A0001BFC442140F24170FDF716FCA4E7012096
:10A9B00084F80180FFF762FEB8F1000F15D1142171
:10A9C0004FF4E860FDF708FC242140F24170FDF7E8
:10A9D00003FCCFE734214FF4E860FDF7FDFB442191
:10A9E00040F24170FDF7F8FB9EE734214FF4E86038
:10A9F000FDF7F2FB442140F24170FDF7EDFBB9E7B2
:10AA0000D0420020D24200202DE9F04383B00F460F
:10AA10009DF82C900A99BDF830E09DF834609DF8BF
:10AA200038C09DF84480002856D0012840D1BA4A49
:10AA3000BA4CD25C84F85120CAB284F8400084F841
:10AA4000529084F85020002B00F09780012B40F0AA
:10AA5000BD800C2940F0BA8084F853302376A4F8E6
:10AA600024E0AF4A0023127866F3070362F30F2352
:10AA70006CF3174368F31F630020C4F8263000F01E
:10AA8000F1FD94F84060002E40F08C80304600F0DC
:10AA900023FFA44AA44B56701E70A44800F094FFF4
:10AAA000A34800F0F3FF94F85130062B00F0BA8071
:10AAB00040F68900FDF714FC40F00401C9B240F6ED
:10AAC0008900FDF789FB3846FDF7D2FC994B129AB5
:10AAD0001A6003B0BDE8F083904C4FF00B0884F887
:10AAE0004000616484F84C80002B40F0A6801F2158
:10AAF000BCF1000F4FF0000386F00106E67784F802
:10AB00004D104FEACE0E14BF4FF0F2084FF001087F
:10AB10004FF0040C182118460126A4F81AE0A2648C
:10AB200084F821802376A37784F81CC0617784F8A9
:10AB3000226000F097FD94F84040002C3ED0794C04
:10AB4000304600F0C9FE25786378AB4240F099802A
:10AB5000754E01233370754800F036FF744800F0DD
:10AB600095FF754B009368460023019300F030FD7C
:10AB700040F2FF1000F036FD9AE7A1F10B03012B24
:10AB80008CBF002301230121053A8A4284F8533007
:10AB900021763FF664AFBEF10B0F3FF660AF0C239A
:10ABA000A3845EE75F4E012000F096FE357873784F
:10ABB000AB420DD15C4E012333706EE7204600F0AE
:10ABC0008BFE584A584B54701C70C4E70023DAE7D8
:10ABD0000120757000F080FE96F8009073784B4568
:10ABE00011D0012086F80190FFF748FDB9F1000F60
:10ABF0007CD114214FF4E860FDF7EEFA242140F2F5
:10AC00004170FDF7E9FA484E0123337075BB1421FA
:10AC10004FF4E860FDF7E0FA242140F24170FDF7BF
:10AC2000DBFAC8E740F68900FDF75AFB00F0FB01AC
:10AC300040F68900FDF7D0FA45E740480121A0F130
:10AC4000080802E0013116290FD050F8085CAB4229
:10AC500000F108004FEAC109F4D358F83150AB4273
:10AC6000F0D2C84498F8041042E7FEE734214FF4CC
:10AC7000E860FDF7B1FA442140F24170FDF7ACFA0B
:10AC800099E73046657000F027FE94F800906378ED
:10AC90004B4511D0304684F80190FFF7EFFCB9F135
:10ACA000000F2ED114214FF4E860FDF795FA24210E
:10ACB00040F24170FDF790FA1B4E0123337055B9F5
:10ACC00014214FF4E860FDF787FA242140F2417027
:10ACD000FDF782FA3DE734214FF4E860FDF77CFA96
:10ACE000442140F24170FDF777FA32E734214FF406
:10ACF000E860FDF771FA442140F24170FDF76CFA0B
:10AD000081E734214FF4E860FDF766FA442140F210
:10AD10004170FDF761FACFE7909B04005842002094
:10AD20001D370020D0420020D2420020984200204F
:10AD300070420020B0420020C194C1009C9B0400DE
:10AD40002DE9F04F87B0CE4E9DF864509DF84C70C1
:10AD5000BDF84880DFF854939DF850403570002DC1
:10AD600018BF4FF00008002F08BFFF2415469DF8BC
:10AD7000542001920E4689F80040BDF844B09DF879
:10AD80006020824600285DD0012858D10020CDE9FE
:10AD9000023200F0E1FC5FFA88F000F0E9FCB9480B
:10ADA000B94C805D84F85100029B84F840A0E8B261
:10ADB00084F8523084F85000039A002E00F0AF80DF
:10ADC000012E40F0E0800C2D40F0DD8084F85360CF
:10ADD0002676A4F824B099F80010AC4D002367F350
:10ADE000070361F30F23019961F3174362F31F63B4
:10ADF000C4F82630012000F06FFD2F786B78BB423D
:10AE000040F0A280A24EA3480123337000F0DCFD85
:10AE1000A14800F03BFE94F82930012B40F2367037
:10AE200000F0D380FDF75CFA40F00401C9B240F2B3
:10AE30003670FDF7D1F9994B4FF47A621A6007B07A
:10AE4000BDE8F08F904C00F087FC0B2384F840A005
:10AE5000656484F84C30002E40F0C0801F22019BB6
:10AE600099F8001084F82010002B87F001074FF0AC
:10AE70000003E77714BF4FF0F20C4FF0010C1821DC
:10AE80004FEACB0B184604270126A4F81AB084F821
:10AE90004D2084F821C02376A3772777617784F843
:10AEA000226000F0DFFB94F84040002C63D0774C28
:10AEB000304600F011FD27786378BB4240F0B68041
:10AEC000734E012333707348744C00F07DFD72485B
:10AED00000F0DCFD724B049304A80023059300F0FE
:10AEE00077FB40F2FF1000F07DFB28461AF05CFC77
:10AEF00002460B4600206B491AF0FAFD0646404612
:10AF00000F461AF061FC02460B46304639461AF0ED
:10AF1000C5FC1AF085FF206007B0BDE8F08FA5F1F1
:10AF20000B03012B8CBF002301230121053888422C
:10AF300084F8533021763FF64CAFBBF10B0F3FF650
:10AF400048AF0C23A38446E701206F7000F0C4FCD7
:10AF50002E786B78B34223D14D4E01233370A7B9BD
:10AF600014214FF4E860FDF737F9242140F24170D5
:10AF7000FDF732F947E7204600F0AEFC434A444B68
:10AF800054701C709FE70023CFE734214FF4E86032
:10AF9000FDF722F9442140F24170FDF71DF932E737
:10AFA00001206E70FFF76AFB86BB14214FF4E86046
:10AFB000FDF712F9364E242140F24170FDF70CF9ED
:10AFC00001233370002FCBD0DFE7FDF789F900F0C4
:10AFD000FB0140F23670FDF7FFF82CE73249012300
:10AFE000A1F1080002E00133162B0ED051F8082C15
:10AFF000964201F108014FEAC30CF4D350F8332014
:10B000009642F0D26044027929E7FEE734214FF4FA
:10B01000E860FDF7E1F81E4E442140F24170FDF773
:10B02000DBF801233370002F9AD0AEE7304667700B
:10B0300000F052FC94F8009063784B4511D03046F4
:10B0400084F80190FFF71AFBB9F1000F3BD11421EE
:10B050004FF4E860FDF7C0F8242140F24170FDF79D
:10B06000BBF80B4E0123337017BB14214FF4E8607B
:10B07000FDF7B2F8242140F24170FDF7ADF820E76A
:10B080003B420020909B040058420020D042002008
:10B09000D242002098420020704200203C42002012
:10B0A000C194C1000040BF409C9B04001D3700209C
:10B0B00034214FF4E860FDF78FF8442140F24170ED
:10B0C000FDF78AF8FDE634214FF4E860FDF784F8D7
:10B0D000442140F24170FDF77FF8C2E72DE9F041CD
:10B0E000514C012000F0F8FB25786378AB4212D177
:10B0F0004E4C01230020237000F0CCFA00F08EFAB1
:10B1000004464FF0040000F099FA022016F0B0FC5B
:10B110002046BDE8F0810120657000F0DDFB267857
:10B120006378B3420ED1414C012323702DBB14210F
:10B130004FF4E860FDF750F8242140F24170FDF72C
:10B140004BF8D6E70120667000F0C6FB27786378DD
:10B15000BB421DD1354C01232370002E42D1142156
:10B160004FF4E860FDF738F8242140F24170FDF714
:10B1700033F801232370002DD9D034214FF4E86037
:10B18000FDF72AF8442140F24170FDF725F8B0E7B9
:10B190000120677000F0A0FB94F8008063784345BD
:10B1A00011D0012084F80180FFF768FAB8F1000F90
:10B1B0002ED114214FF4E860FDF70EF8242140F25F
:10B1C0004170FDF709F8194C01232370AFB9142120
:10B1D0004FF4E860FDF700F8242140F24170FCF7DD
:10B1E000FBFFB8E734214FF4E860FCF7F5FF44219A
:10B1F00040F24170FCF7F0FF96E734214FF4E8602D
:10B20000FCF7EAFF442140F24170FCF7E5FFA2E7BA
:10B2100034214FF4E860FCF7DFFF442140F2417035
:10B22000FCF7DAFFCFE700BFD0420020D242002077
:10B2300070B57F4C82B00125FCF790FD2570FCF7BE
:10B240008FFD237823BB7B4B1A789AB97A4B1A78F7
:10B250000AB902B070BD002278481A70FCF7EAFD06
:10B26000774B1B68002BF4D05B68002BF1D098471C
:10B2700002B070BD002273481A70FCF7DBFD704B02
:10B280001B68002BE2D0DB68002BDFD09847DDE79E
:10B29000FCF764FD00232370FCF762FD00F0A2FAC6
:10B2A00004464FF6FF7000F0FFFCE10737D4A20719
:10B2B00052D4260642D4A5051AD4600705D5604BA2
:10B2C0001B6813B15B6903B19847A106BBD55D4804
:10B2D000FCF7B0FD5C4B1B78002B00F09180584BC5
:10B2E0001B68002BAFD0DB68002BACD09847AAE7D7
:10B2F00000F002F9042870D000F0FEF80528DCD137
:10B300005048FCF797FD012000F0FCF84C4B1A6800
:10B31000002ADAD0D268002A6DD09047CDE747489E
:10B32000FCF788FD284600F0EDF8454B1B68002B24
:10B33000BDD01B68002BBAD09847B8E7012000F0B9
:10B34000E1F83F4B1B68002BB5D0DB69002BB2D076
:10B35000C4F300209847AEE73A48FCF76BFD3A4B40
:10B360001D78002D50D0FF22002138481AF06BFEC6
:10B37000630616D5FF22002134481AF064FEFF222E
:10B380000DF10701314800F0D7F8314800F04CFCCE
:10B390002B4B1B68002B8CD01B69002B89D0984746
:10B3A00087E72B4D2948FF220DF1070100F0C4F873
:10B3B000284600F039FC224B1B68002B3FF479AF84
:10B3C0009E68002E3FF475AF95F90D3095F90C206D
:10B3D0009DF807101D48B0476BE71848FCF72AFD99
:10B3E000012000F08FF8164B1A68002A3FF46DAF69
:10B3F0005268002A91D162077FF567AF1B6861E749
:10B40000012000F07FF86AE7012000F07BF8294670
:10B4100040F60210FCF7E0FE40F64410FCF760FF37
:10B4200040F00201C9B240F64410FCF7D5FE9AE79D
:10B4300027410020AC420020AD420020B442002051
:10B44000CC420020404200203B4200203C410020F2
:10B45000284100200249034A00234B705370704773
:10B46000B44200204042002030B5044683B0FCF7CF
:10B4700085FD204602ACFCF779FDFCF7ADFD00230D
:10B4800004F8053DFDF72CFA214601228020FCF747
:10B49000DBFD154D9DF80320144C95F82930002A4A
:10B4A0000CBF0122022222706BB995F8283033B10B
:10B4B00002A9012201F8042D9D20FCF7C5FD0123FE
:10B4C000237003B030BD02A9094B41F8043D0422AA
:10B4D0009720FCF7B9FD02A97F2301F8083D01225E
:10B4E0008920FCF7B1FDE0E78C3F0020D942002025
:10B4F000070000CCFCF73ABD014B1878704700BF3D
:10B50000D9420020014B1870704700BFD94200207B
:10B5100008B5084B1B782BB1062B03D0BDE80840BB
:10B52000FCF748BDFCF758FDFCF7B0FFBDE808404C
:10B53000FCF740BDD942002070B582B006460D46EA
:10B54000144601A902221320FCF7C0FD104B1B7802
:10B55000012B0FD09DF804202A7094429DF805001D
:10B5600002D2012002B070BD3146FCF73BFF002043
:10B5700002B070BD40F20470FCF7B2FEC0110128A9
:10B58000E8D140F20270FCF7ABFE02462870E4E717
:10B59000D842002030B5144683B00A460146002048
:10B5A000FCF7DEFE0425094B8DF80640200C8DF8D3
:10B5B0000400240A03220DEB050183208DF80540C9
:10B5C0001D70FCF741FD03B030BD00BFD942002023
:10B5D00008B5014608224FF4D860FCF7B9FD0020F9
:10B5E00008BD00BF0C4B1B7803B1704710B5044673
:10B5F0004FF4D760FCF774FEC4F3002300F0FE01A3
:10B6000019434FF4D760FCF7E7FDE1B240F2B960AF
:10B61000BDE81040FCF7E0BDD842002000B583B083
:10B6200002A9002341F8043D042240F61900FCF76A
:10B630000DFE019800BA03B05DF804FB10B582B0AE
:10B6400002AC04F8040DFDF74BF9214601228420D9
:10B65000FCF7FAFC024B00221A7002B010BD00BFCA
:10B66000D942002010B582B002AC04F8010DFDF7FC
:10B6700037F9214601228020FCF7E6FC9DF80720DF
:10B68000034B002A0CBF012202221A7002B010BD27
:10B69000D942002070B582B0084C8DF80600030A2C
:10B6A000060C0525032201A982208DF804608DF87F
:10B6B00005302570FCF7C8FC02B070BDD9420020EF
:10B6C00030B50C4B83B004460522962140F6AC0001
:10B6D0001A70250CFCF780FD230A032201A98220A1
:10B6E0008DF806408DF804508DF80530FCF7ACFC61
:10B6F00003B030BDD942002070B582B00B0A060CF1
:10B70000050A0C0C8DF802008DF80510062269461A
:10B7100094208DF804308DF800608DF801508DF87C
:10B720000340FCF791FC024B06221A7002B070BD78
:10B73000D942002008B500221146C520FCF784FC40
:10B74000014B07221A7008BDD94200200022114681
:10B75000D120FCF779BC00BF00B583B002A901225B
:10B7600001F8010D9F20FCF76FFC03B05DF804FBAE
:10B7700000B583B002A9012201F8010DA020FCF759
:10B7800063FC03B05DF804FB00B583B002A901229D
:10B7900001F8010D9620FCF757FC03B05DF804FB9F
:10B7A00070B582B01446082220FA02F58DF8010027
:10B7B00021FA02F08DF8005024FA02F68DF80310F9
:10B7C00023FA02F58DF80200694610468DF805400F
:10B7D0008DF804608DF807308DF80650FCF734FCC6
:10B7E00002B070BD00B583B0022201A91220FCF79F
:10B7F0006DFC9DF804009DF8053043EA002003B07D
:10B800005DF804FB0000000070B52D4D2B7882B070
:10B810000446F3B101AE204619F0C6FF26A3D3E9D2
:10B8200000231AF03BF81AF0FBFA0023020E62F331
:10B830000703020C62F30F23020A62F3174360F35B
:10B840001F633146042286200193FCF7FDFB02B002
:10B8500070BD1C4B984210D81B4B98421AD81B4BFA
:10B86000984221D81A4B984219D81A4B984284BF53
:10B8700046F66B73ADF8043003E04EF6E113ADF815
:10B88000043001AE314602229820FCF7DDFB012393
:10B890002B70C0E74DF6D733ADF80430F1E748F22E
:10B8A0007513ADF80430ECE74CF2C153ADF8043039
:10B8B000E7E700BFAFF300808DEDB5A0F7C6F03F1E
:10B8C000DA42002000E9A43580F8A9328044E52D51
:10B8D000000B6B1B40FC541910B582B002A9054C3B
:10B8E00001F8010D034601228A202370FCF7ACFB0E
:10B8F00002B010BDD8420020014B1878704700BF3D
:10B90000D842002070B5044682B000200E46FCF7F5
:10B91000B3FD012823D10F2C02AD43D0264B45F8AF
:10B92000043D042229469520FCF78EFB6FF010039E
:10B930009C42B8BF1C460E2CA8BF0E24E4B21821AE
:10B9400040F6E700FCF748FC294602228E208DF8DD
:10B9500004408DF80560FCF777FB02B070BD40F63F
:10B96000D800FCF7BDFC40F01E01C9B240F6D8007B
:10B9700002ADFCF731FC114B45F8043D0422294689
:10B980009520FCF761FB6FF008039C42B8BF1C4692
:10B99000382140F6E700FCF71FFC162CA8BF162440
:10B9A000E4B2D1E7064B45F8043D04222946952030
:10B9B000FCF74AFB0E24C2E7040001010407000162
:10B9C000060001010000000070B52F4D04462B78E1
:10B9D000007884B000229842CDE902220BD1ABB1AD
:10B9E000012B06D12369029302A904228B20FCF7C4
:10B9F0002BFB04B070BD04A9287001F8090D0122C9
:10BA00008A20FCF721FB2378002BE9D1606819F02C
:10BA1000CBFE02460B4618A1D1E900011AF068F8E6
:10BA20001AF0FEF9627B217B8DF80C200346060C90
:10BA3000050AA0688DF80A308DF809508DF8086065
:10BA40008DF80B1019F0B0FE0DA3D3E9002319F007
:10BA500025FF1AF0E5F902A90346050C040A08229D
:10BA60008B208DF80F308DF80D508DF80E40FCF7BF
:10BA7000EBFA04B070BD00BF000000008084CE412E
:10BA80008DEDB5A0F7C6F03FD842002070B5464E08
:10BA90000578337886B000229D420446CDE9032222
:10BAA0008DF814201BD12BB3012B16D1A389627CF6
:10BAB000A57BE07B217C8DF80D301B0A8DF81120D1
:10BAC0008DF80C308DF80E508DF80F008DF8101099
:10BAD000062203A98C20FCF7B7FA06B070BD06A9B0
