:020000022000DC
:1060000000000420C9610400096204000B6204005E
:106010000D6204000F620400116204000000000021
:1060200000000000000000000000000045610400C6
:10603000156204000000000065610400196204009C
:10604000596404001B6204001B6204001B6204000C
:106050001B6204001B6204006D3A04001B62040012
:106060001B6204001B6204001B6204001B6204002C
:106070001B6204001B6204001B6204001B6204001C
:106080001B620400D15E04001B6204001B6204005A
:106090001B6204001B620400F5F903001B6204008C
:1060A0001B6204001B6204001B6204001B620400EC
:1060B0001B6204001B6204000000000000000000DE
:1060C0001B6204001B6204001B620400C188040000
:1060D0001B6204001B6204001B6204009D37040065
:1060E0001B6204001B6204001B620400000000002D
:1060F000000000001B620400000000003989040059
:10610000000000000000000000000000000000008F
:10611000000000000000000000000000000000007F
:10612000000000000000000000000000000000006F
:10613000000000000000000000000000000000005F
:10614000000000000000000000000000000000004F
:10615000000000000000000000000000000000003F
:10616000000000000000000000000000000000002F
:10617000000000000000000000000000000000001F
:10618000000000000000000000000000000000000F
:1061900000000000000000000000000000000000FF
:1061A00000000000000000000000000000000000EF
:1061B00000000000000000000000000000000000DF
:1061C00000000000000000000000000000000000CF
:1061D00000000000000000000000000000000000BF
:1061E00000000000000000000000000000000000AF
:1061F000000000000000000000000000000000009F
:10620000F1EE103A43F08073E1EE103A704700BFB0
:1062100010B5054C237833B9044B13B10448AFF3E0
:1062200000800123237010BDE864002000000000FE
:10623000A4E7040008B5034B1BB103490348AFF3BF
:10624000008008BD00000000EC640020A4E704000A
:10625000154B002B08BF134B9D46A3F5803A002138
:106260008B460F461348144A121A23F01CFB0F4B9F
:10627000002B00D098470E4B002B00D098470020F1
:10628000002104000D000D48002802D00C48AFF397
:10629000008023F081FA200029001FF0E3FF23F0A3
:1062A00055FA00BF000008000000042000000000B4
:1062B00000000000E864002034B10020000000006D
:1062C00000000000014B01221A7070478066002018
:1062D000014B00221A70704780660020054A06496B
:1062E00013880888054903430868138000211EF0BD
:1062F00017B800BF7A690020DE6000207C690020AA
:1063000070B50D4E0D4D0E4C304619F099FC2A46D5
:1063100030460C4922F050FB20464FF4807119F0B2
:106320006DFE2A462046084922F046FB0748BDE894
:10633000704019F011BD00BF04650020006000200E
:10634000A4650020C1640200990504006465002072
:10635000F0B54D4C4D4D4E4EC9B02046042119F0BC
:10636000C5F810230093204602225B2119F0AAF8F9
:1063700000222046012119F0EFF82046082119F0EB
:10638000A5FA08A84FF48072002123F08CFA414B43
:10639000414A19681268080E0390C1F30740029041
:1063A000C2F30723C1F30720C9B243F0C003D2B23E
:1063B000CDE9001008A8394924F004F904F52C7738
:1063C00008A9204619F05AFA3846354918F06AFDEE
:1063D0003846344918F068FD28460B22324919F036
:1063E000FDFC28460722314919F0ECFC24A3D3E92F
:1063F00000232F4908A824F0E5F808A824F029F97B
:1064000008A9C2B2284619F0E5FC05222949284608
:1064100019F0DCFC284619F0E5FC274819F034FC9B
:1064200030461AF0EDF801223046244919F02AFED0
:1064300004F5007404A801F0FBFB2046062117F0C8
:1064400089FB04A9204617F02FFB204617F03CFBE0
:10645000204617F067FB2046012117F0AFFBF4221E
:106460002046202117F0A6FB20460F2117F0A0FBA5
:106470002046002117F0FEFB49B0F0BDAFF30080CD
:106480007B14AE47E17A843F0895002064650020C4
:10649000A4650020A4000010A8000010F4C50400AA
:1064A000C5620200D162020014C6040020C60400C6
:1064B00028C604002CC6040004650020DD6202002A
:1064C00010B5044B044640F8103B17F0B3FC2046CF
:1064D00010BD00BF64E00400F0B5B649B648B74C43
:1064E000B74EB84D8FB024F029F8B74824F026F8FD
:1064F0000A2024F03BF8AF49AF4824F01FF8627837
:106500002178B24824F01AF80A2024F02FF8A9497B
:10651000A94824F013F8A178AD48002914BF3146EA
:10652000294624F00BF80A2024F020F8A149A248BB
:1065300024F004F8E178A748002914BF3146294621
:1065400023F0FCFF0A2024F011F89A499A4823F01E
:10655000F5FFE07AA77A0490607A03970290277A91
:10656000E079A37962792179CDE900079A4823F08F
:10657000E5FF0A2023F0FAFF8E498F4823F0DEFF63
:10658000E07CA77C0490607C03970290277CE07BF2
:10659000A37B627B217BCDE90007904823F0CEFFEF
:1065A0000A2023F0E3FF8349834823F0C7FF607E7E
:1065B000277E0290E07DA37D627D217DCDE90007ED
:1065C00094F8230094F822700C9094F821000B9713
:1065D0000A9094F82070E07F09970890A77F607F69
:1065E00007970690277FE07E05970490A77E7C485A
:1065F000039723F0A3FF0A2023F0B8FF6D496E48EC
:1066000023F09CFF94F8290094F82870029094F8E5
:10661000270094F8263094F8252094F82410CDE92A
:10662000000794F8330094F832700C9094F831001D
:106630000B970A9094F8307094F82F0009970890FF
:1066400094F82E7094F82D000797069094F82C700B
:1066500094F82B000597049094F82A7061480397EA
:1066600023F06CFF0A2023F081FF5249524823F0A7
:1066700065FF94F8390094F83870029094F8370068
:1066800094F8363094F8352094F83410CDE90007AA
:1066900094F8430094F842700C9094F841000B97E2
:1066A0000A9094F8407094F83F000997089094F885
:1066B0003E7094F83D000797069094F83C7094F86B
:1066C0003B000597049094F83A704748039723F0ED
:1066D00035FF0A2023F04AFF3649374823F02EFFC2
:1066E000616C424823F02AFF0A2023F03FFF314922
:1066F000314823F023FFA16C3D4823F01FFF0A20FF
:1067000023F034FF2B492C4823F018FF94F84C1049
:106710003848002914BF3146294623F00FFF0A20CC
:1067200023F024FF2349244823F008FF324A334B47
:1067300094F84D103248002914BF1146194623F031
:10674000FDFE0A2023F012FF1A491B4823F0F6FE33
:1067500094F84E102B48002914BF3146294623F0E7
:10676000EDFE0A2023F002FF1249134823F0E6FE53
:1067700094F84F10244823F0E1FE0A2023F0F6FE9F
:106780000C490D4823F0DAFE94F850101F4823F00E
:10679000D5FE0A2023F0EAFE0649074823F0CEFE84
:1067A00094F851101A4823F0C9FE0A2023F0DEFEA7
:1067B00030E000BFC0C60400C8C6040084600020EA
:1067C00084C604008CC60400D0C60400E0C60400E1
:1067D000F8C604000CC7040018C704004CC7040026
:1067E00080C70400DCC7040038C8040098C804004F
:1067F000ACC80400C0C8040098C60400A0C60400C9
:10680000CCC80400DCC80400F0C8040004C90400BB
:1068100014C904002249234823F090FE94F8521032
:10682000214823F08BFE0A2023F0A0FE1C491D48BE
:1068300023F084FE94F853101C4823F07FFE0A20B6
:1068400023F094FE1649174823F078FE94F854106C
:10685000174823F073FE0A2023F088FE10491148E0
:1068600023F06CFE134A144B94F85510134800297A
:1068700014BF1146194623F061FE0A2023F076FE6C
:106880000749084823F05AFE94F857100C4823F0A3
:1068900055FE0A200FB0BDE8F04023F067BE00BFF0
:1068A000C0C60400C8C6040020C9040030C90400E2
:1068B00040C90400A8C60400B4C6040050C90400BE
:1068C00060C90400F0B5B449B44CB548B54EB64DF6
:1068D0008FB01AF051FC32201DF082F963782278D3
:1068E000B249AF481AF048FC32201DF079F9A2787D
:1068F000AF49AB48002A14BF32462A461AF03CFC86
:1069000032201DF06DF9E278AA49A548002A14BF8B
:1069100032462A461AF030FC32201DF061F9E77A3F
:10692000A07A617A05970490277AE0790391A1799A
:10693000637922790091CDE901079F4998481AF0BF
:106940001BFC32201DF04CF9E77CA07C617C059794
:106950000490277CE07B0391A17B637B227B0091E9
:10696000CDE9010795498E481AF006FC32201DF04A
:1069700037F9E07DA17D94F821700B97CDE90010E7
:1069800094F8231094F822000D910C9094F82010A4
:10699000E07FA77F0A910990617F207F0897079188
:1069A000E77EA17E0690607E637D227D059704913F
:1069B000277E834903907A4802971AF0DDFB322044
:1069C0001DF00EF994F8270094F8261094F8317011
:1069D0000B97CDE9001094F8331094F832000D9124
:1069E0000C9094F8301094F82F0094F82E700A91BF
:1069F000099094F82D1094F82C000897079194F8BA
:106A00002B7094F82A10069094F8290094F82530F9
:106A100094F824200597049194F82870694903900C
:106A20005F4802971AF0A8FB32201DF0D9F894F8BD
:106A3000370094F8361094F841700B97CDE90010A8
:106A400094F8431094F842000D910C9094F8401083
:106A500094F83F0094F83E700A91099094F83D1024
:106A600094F83C000897079194F83B7094F83A101A
:106A7000069094F8390094F8353094F8342005974E
:106A8000049194F8387050490390454802971AF0E1
:106A900073FB32201DF0A4F8626C4C4940481AF098
:106AA0006BFB32201DF09CF8A26C49493C481AF05F
:106AB00063FB32201DF094F894F84C204549384887
:106AC000002A14BF32462A461AF056FB32201DF027
:106AD00087F8414B94F84D70404A41493048002FA7
:106AE00008BF1A461AF048FB32201DF079F894F8D6
:106AF0004E203C492A48002A14BF32462A461AF042
:106B00003BFB32201DF06CF894F84F2036492448A6
:106B10001AF032FB32201DF063F894F8502033490C
:106B20001F481AF029FB32201DF05AF894F8512022
:106B30002F491B481AF020FB32201DF051F894F821
:106B400052202C4916481AF017FB32201DF048F845
:106B500094F85320284912481AF00EFB32201DF0F9
:106B60003FF894F8542025490D481AF005FB3220CF
:106B70001DF036F8224B94F85550224A2249084815
:106B8000002D08BF1A461AF0F7FA32201DF028F837
:106B900094F857201D493BE098C904008460002008
:106BA000B465002084C604008CC60400ACC904008F
:106BB000C4C90400D8C90400E8C9040020CA0400FC
:106BC00058CA0400B8CA040018CB040078CB0400EB
:106BD0008CCB0400A4CB0400A0C6040098C604001B
:106BE000B0CB0400C0CB0400D4CB0400E8CB04003D
:106BF000FCCB040008CC040018CC040028CC040012
:106C0000B4C60400A8C6040038CC040048CC040074
:106C100002480FB0BDE8F0401AF0AEBAB4650020EB
:106C20000149024811F0BCBB488400208466002062
:106C300008B50B4811F002FA01220A490A4811F07E
:106C4000B7FC00B908BD58220849074811F0B6FA48
:106C5000054811F02DFB0448BDE8084011F0EEBDD9
:106C60004884002058CC0400846600208460002002
:106C700010B5304816F000FD00222F492F4811F0C2
:106C800097FC2E4811F01EFE88B12D4C2B4858223F
:106C9000214611F079FD294811F0D0FD228845F2F6
:106CA000AA739A4227D1BDE81040FFF715BC2549C9
:106CB000254823F043FC254823F040FC0A2023F01C
:106CC00055FC64201CF08CFF1A4811F0B7F9012222
:106CD00019491A4811F06CFC00B910BD5822184926
:106CE000164811F06BFA154811F0E2FA1348BDE8A6
:106CF000104011F0A3BD1349134823F01FFC1448A2
:106D000023F01CFC0A2023F031FC0A4811F096F90C
:106D10004FF47A701CF064FFBFF34F8F0D490E4B98
:106D2000CA6802F4E0621343CB60BFF34F8F00BF29
:106D3000FDE700BF4884002058CC04008466002092
:106D400084600020C0C60400C8C6040034C6040025
:106D500058C6040000ED00E00400FA0510B500225A
:106D60003249334811F024FC314811F0ABFD88B3AF
:106D7000582230492E4811F007FD2D4811F05EFDD4
:106D800058222D492B4822F05BFD20B90124FFF742
:106D9000A3FB204610BD2949294823F0CFFB2948F1
:106DA00023F0CCFB0A2023F0E1FB64201CF018FF49
:106DB0001E49254811F0E8F901221C491C4811F030
:106DC000F7FB044648BB1A4811F038FDFFF784FB77
:106DD000204610BD19491A4823F0B0FB1B4823F088
:106DE000ADFB0A2023F0C2FB64201CF0F9FE16481C
:106DF00011F024F901220D490D4811F0D9FB0028AA
:106E0000B6D058220C490A4811F0D8F9084811F0B8
:106E10004FFA074811F012FDAAE758220649044824
:106E200011F0CCF9024811F043FACCE758CC040039
:106E3000846600200460002084600020C0C6040036
:106E4000C8C6040070C904004884002034C6040089
:106E5000044B186820B100231A4619461CF09EBF47
:106E6000704700BFF067002038B51549154C05463E
:106E7000154823F063FB154B1548595D23F05EFB65
:106E80000A2023F073FB134A1349138808882168EA
:106E90000343138079B10A490B4823F04FFB0F4895
:106EA00023F04CFB0A2023F061FB002320681A46E4
:106EB00019461CF073FF0A4B01221A7038BD00BF3F
:106EC000FCCE04007C690020C8C6040030CF04005A
:106ED00004CF04007A690020E06000201CCF040089
:106EE000FC68002038B5124D124C2946204623F08C
:106EF00025FB114823F022FB0A2023F037FB29460B
:106F0000204623F01BFB0D4823F018FB0A2023F03A
:106F10002DFB2946204623F011FB094823F00EFBE8
:106F20000A2023F023FBBDE8384002F079BC00BF03
:106F3000FCCE0400C8C6040090CE0400A4CE040019
:106F4000DCCE0400F0B5334C83B00021232020F0C8
:106F500045F8E378002B39D002F05AFD2E4905465A
:106F60002E4823F0EBFA29462D4823F0E7FA0A20B1
:106F700023F0FCFA64201CF033FE94F85250002DEC
:106F800035D1284A284913880888284F284E39685F
:106F9000034313800123337091B11F491F4823F02D
:106FA000CDFA244823F0CAFA0A2023F0DFFA64203D
:106FB0001CF016FE2B462A46294638681CF0EEFEC9
:106FC000A16C01233370C1B903B0F0BD124913485D
:106FD00023F0B4FA184823F0B1FA0A2023F0C6FAD5
:106FE00064201CF0FDFD94F85250002DC9D02846B5
:106FF00002F0C6FCA16C0029E6D0012300930F4AE1
:107000000F4800231FF024FD0D4803B0BDE8F040F9
:107010001FF032BD84600020FCCE0400C8C604000E
:107020005CCE04007A690020EA6000207C690020C0
:10703000FC6800201CCF040084CE0400BD74020054
:107040008069002030B5044683B03349334823F0CB
:1070500075FA207AB4F906302279617900903048C7
:1070600023F06CFA0A2023F081FA6379022B06D010
:10707000032B02D12379012B26D003B030BD227916
:1070800021682848284D22F0EAFB2849284A088828
:107090002849138824790C70296803431380002938
:1070A000EBD01D491D4823F049FA234823F046FA46
:1070B0000A2023F05BFA002328681A46194603B019
:1070C000BDE830401CF06ABE2368187801281AD049
:1070D00010D30228D1D102F053FC0F490F4823F0FE
:1070E0002DFA164823F02AFA0A2003B0BDE83040F2
:1070F00023F03CBA002002F043FC0749074823F084
:107100001DFA0F48EEE702F03BFC0349034823F069
:1071100015FA0C48E6E700BFFCCE0400C8C6040020
:10712000C0CD0400F86700207C690020E0600020EA
:107130007A690020F56700201CCF04003CCE0400D3
:10714000FCCD04001CCE040080B51B491B481C4C20
:107150001C4D1D4F1D4E23F0F1F91D4823F0EEF993
:107160000A2023F003FAC8201CF03AFD02F058FB75
:1071700023787BB9AB6E98470A201CF031FD237849
:10718000002BF5D0042231462F201CF065FB23781C
:10719000002BEFD0002123201FF020FF4FF0FF3104
:1071A00038681DF07BFA0128E2D1014623201FF048
:1071B00015FFEB6E9847DBE7FCCE0400C8C6040061
:1071C000FC68002090D30400F0670020516E02009C
:1071D000A4CD040038B5054CA4F1780520460C3C3C
:1071E0001CF0ACFCAC42F9D138BD00BF6C6900208A
:1071F00070B5032282B0002101201CF05BFD534CCE
:1072000000231A46194620601CF0C8FD00F04AFD14
:10721000002868D14E4C4F4D0646201D01F0E6FF78
:1072200004F10C0001F0EAFF04F1140001F0EEFF9C
:1072300004F1240001F0F8FF04F1340002F002F838
:10724000606C02F00DF894F84C1094F8512094F80A
:107250004D30297094F84F106A70AB7094F850203C
:1072600094F84E30E9703C483C492A716B7123F028
:1072700065F994F857303A4A3A4803EB430352F819
:10728000231023F05BF90A2023F070F994F85720BB
:10729000E3783548CDE9006295E8060002F084F80D
:1072A000054668BB94F8530001F0E0FF2B49002825
:1072B00033D0294823F042F92C4823F03FF90A2023
:1072C00023F054F92A4B25492A480124CDE90043EB
:1072D0004FF480522B461DF025FD50B3264B284617
:1072E0001C7002B070BD1D491B4823F027F92348CC
:1072F00023F024F90A2023F039F94FF0FF30F0E7AA
:107300001649154823F01AF91D4823F017F90A20E9
:1073100023F02CF96FF00100E3E70F4823F00EF99A
:10732000184823F00BF90A2023F020F96FF002002F
:10733000D7E70A49084823F001F9134823F0FEF87B
:107340000A2023F013F96FF00300CAE7F06700206A
:1073500084600020E8660020C8C60400FCCE04005B
:1073600000690020F4CC04005C6000206CCD0400B7
:10737000F868002049710200F4670020D8CC0400AE
:1073800010CD040030CD040084CD040070B5064655
:107390000C4602F0A1FA01280BD00F490F4823F048
:1073A000CDF80F4823F0CAF80A2023F0DFF80020B8
:1073B00070BD0C4D0C482C713146224602236B7176
:1073C00022F04DFA094B284693F8551002F092FA34
:1073D000B0FA80F0400970BDFCCE0400C8C60400BD
:1073E000ACCC040078600020F066002084600020AF
:1073F00010B51C4C1C4920461CF07AFB04F10C0013
:107400001A491CF075FB04F1180019491CF070FBB7
:1074100004F1240017491CF06BFB04F130001649FD
:107420001CF066FB04F13C0014491CF061FB04F104
:10743000480013491CF05CFB04F1540011491CF096
:1074400057FB04F1600010491CF052FB04F16C0082
:107450000E491CF04DFB0E4A0E490020BDE81040BD
:1074600021F0AABA006900205CCC040064CC0400BE
:107470006CCC040074CC04007CCC040084CC0400EC
:107480008CCC040094CC04009CCC0400A4CC04005C
:1074900000600020D5710200BFF34F8F0549064BF5
:1074A000CA6802F4E0621343CB60BFF34F8F00BFA2
:1074B000FDE700BF00ED00E00400FA0508B501217A
:1074C00023201FF08BFD064A0649138808880649C9
:1074D000034313800868BDE8084000211CF020BF6A
:1074E0007A690020EA6000207C6900202DE9F04BD9
:1074F0000322002101201CF0DDFBDFF8B081DFF862
:10750000B091C8F80000002319461A461CF046FC4A
:10751000012123201FF022FD002123201FF05EFD0A
:10752000012124201FF01AFD012124201FF056FD07
:107530004FF4E131484619F079FF1CF045FB41F268
:10754000873600270446002519E01CF03DFB8346E2
:10755000BBEB04024FF0000C6CEB0503964277EB9B
:1075600003034FF064000FDB1CF03AFB23201FF0F5
:1075700051FDB0FA80F1490923201FF02FFD484644
:1075800019F056FF0028E0D0012123201FF026FD2E
:107590003C493D4822F0D2FF3C4822F0CFFF0A2070
:1075A00022F0E4FF3749384822F0C8FF384822F07B
:1075B000C5FF0A2022F0DAFF3249334822F0BEFF2D
:1075C000324822F0BBFF0A2022F0D0FFFFF750FB29
:1075D000FEF7BEFE2F4B2B499B782B487BB322F046
:1075E000ADFF2D4822F0AAFF0A2022F0BFFFFFF7CF
:1075F000FFFD2449A8B32448284C0E46054622F036
:107600009DFF274822F09AFF0A2022F0AFFF314663
:10761000284622F093FF204622F090FF0A2022F015
:10762000A5FF23201FF0F6FCB0FA80F149092320C2
:107630001FF0D4FC41F288301CF0D2FAE7E722F0C8
:107640007DFF184822F07AFF0A2022F08FFF642085
:107650001CF0C6FAD8F800000A21BDE8F04B1DF076
:107660001DB8094822F06AFF0F4822F067FF0A2080
:1076700022F07CFFD8F800000A21BDE8F04B1DF095
:107680000DB800BF44D00400C8C6040048D00400B0
:1076900070D004008460002090D00400D0D004009A
:1076A000BCD0040008D10400F4D004007C690020A0
:1076B000749800202DE9F04FB24D89B04FF0FF31A2
:1076C00000AF28681CF0EAFF012803D02437BD462C
:1076D000BDE8F08FAC4CDFF82883014623201FF073
:1076E0007DFC2388B8F800209A42EFD0DFF814938D
:1076F000DFF804A31BE0A549A54822F01FFFA54819
:1077000022F01CFF0A2022F031FF00260A212868FF
:1077100026801CF0C3FF314623201FF05FFC0A20A7
:107720001CF05EFA2388B8F800209A42CED0B9F84F
:1077300000209A43DFD1984A944912889448974E82
:107740001340238022F0FAFE954822F0F7FE0A202B
:1077500022F00CFF64201CF043FAB36C002B6BD1B9
:107760008A498B4822F0EAFE8E4822F0E7FE0A2082
:1077700022F0FCFE64201CF033FA8B4A2388128826
:107780009A4300F0B480894A12889A4375D0884A97
:1077900012889A43AFD1874A7C4912887C481340AB
:1077A000238022F0CBFE844822F0C8FE0A2022F07B
:1077B000DDFE9AF80030C7F804A01F2B00F2BA8053
:1077C0007E4BFB601E78C7F800D006EB4603DA1D3F
:1077D00002F4FF62ADEB020D0021012BC7F808D0C7
:1077E0008DF8001003F1FF3203DD0DF1010022F0EE
:1077F0005AF89EB1DFF800B2C7F804A00026BB68B3
:107800001BF8012B6E49981922F0DCFEFB681978F1
:10781000ABEB0A0203369142F6B2F0DC5B495C48FE
:1078200022F08CFEB968674822F088FE0A2022F018
:107830009DFED7F800D088E063480022C7E9050222
:107840006F23052107F114003B76FFF79FFD4F4999
:1078500048B94F4822F072FE5C4822F06FFE0A20C1
:1078600022F084FE89E74A4822F068FE584822F058
:1078700065FE0A2022F07AFE7FE7564A56491288B2
:1078800007F1140013400A22238019F091FC07F13C
:1078900014001CF08BF951493D4822F04FFE7969E4
:1078A0004F4822F04BFE0A2022F060FE07F1140040
:1078B00000211CF06DF90378532B00F0A580002106
:1078C00007F114001CF064F90378452B00F0AD803B
:1078D000002107F114001CF05BF90378522B00F033
:1078E000AA8007F114001CF029F923884FE73D4ACC
:1078F0002649128826481340238022F01FFE3A486A
:1079000022F01CFE0A2022F031FE64201CF068F9EF
:1079100058222249354816F04DFD58221F49334858
:1079200016F05AFEB3781BB1314B1B78002B79D07F
:10793000238828E71549164822F000FE51462148C1
:1079400022F0FCFD0A2022F011FE2A4B1B78002BAE
:107950003FF4D1AE194BFB601B7873B1264EDFF8B4
:1079600060B016F8012B1C48594619F005FCFB685D
:1079700019787B68F21A9142F3DC2049164819F015
:10798000E3FBB8E67C6900207A69002044D004005B
:10799000C8C6040030D00400E860002084600020E5
:1079A00044CF040054CF0400DC600020DE600020DF
:1079B000E0600020E66000200CD00400F5670020A5
:1079C00028D00400C8C8040048656C6C6CCF040063
:1079D00088CF0400E4600020B4650020B8CF040024
:1079E000BCCF0400E26000209CCF04008869002026
:1079F000F467002080660020F8670020A8C9040012
:107A000078690020EA600020104B114A1878114B69
:107A10001149002818BF1A46104819F0ADFBFEF7AF
:107A200051FF4CE7FFF7E4FB82E70D490B4819F0E3
:107A3000A3FBFFF7FDF80B49084819F09DFB41F245
:107A400088301CF0CDF8FFF727FD00BFF467002059
:107A500034CF040038CF0400CCCF0400B46500203C
:107A6000E4CF0400FCCF040010B5074C20461EF004
:107A7000E7FF064A0649204620F09EFF054A064BCE
:107A800012881A8010BD00BF8069002000600020AD
:107A9000F1690400786900207A69002070B54148D6
:107AA0000D46414916461C4622F048FD3F4822F04B
:107AB00045FD0A2022F05AFD4FF47A701CF090F830
:107AC000281D3B4917F076FA90B1582C11D1328815
:107AD00045F2AA739A4219D03349324822F02EFD5A
:107AE000344822F02BFD0A20BDE8704022F03EBD54
:107AF00070BD2D492B4822F021FD21462E4822F051
:107B00001DFD0A20BDE8704022F030BD2B4D3146EE
:107B10002246284621F0A3FEFFF720F929462246F7
:107B2000274816F047FC29462246254816F054FD02
:107B300095F85650DDB9234C2368002BD8D0224A43
:107B4000224913880888184903431648138022F0F5
:107B5000F5FC1F4822F0F2FC0A2022F007FD2B461C
:107B60002A4629462068BDE870401CF017B90E4926
:107B70000C4822F0E3FC174822F0E0FC0A2022F037
:107B8000F5FC4FF47A701CF02BF8BFF34F8F1249BD
:107B9000124BCA6802F4E0621343CB60BFF34F8F0D
:107BA00000BFFDE7C8C604003CD1040044D1040076
:107BB0008C69002080D1040058D10400846000202A
:107BC000886900207C6900207A690020DC60002040
:107BD0001CCF0400B4D1040000ED00E00400FA055D
:107BE00030B583B06C4620464FF2A00117F0B4F9CF
:107BF0000B4D0C4894E8060017F094F920464FF21C
:107C0000A10117F0A9F994E80600284616F03EFBFA
:107C10002846054A054920F0CFFE03B030BD00BF1D
:107C200088690020D86900200060002035DE03004C
:107C300070B5174E174C0546304617F055F92046DB
:107C40001A2116F075FB11221146204616F088FB0A
:107C50002046592116F072FB204601220E4916F0EB
:107C600085FB204616F0EEF8204658220B4916F008
:107C7000A1FB06F1080393E80300094BB2882B60CF
:107C800005F10803AA8083E80300284670BD00BF01
:107C9000D8690020886900209D7A02008460002055
:107CA000A4DF040030B51E4B26212A2459609C60B5
:107CB0002B202D222F252E212C2483B0D8601A6151
:107CC0005D619961DC6101212720252202250024C4
:107CD000C3E9080283F8281083F8291083F82C10D0
:107CE0001D6083F82A4000F063F800F0F1F802A963
:107CF0002A4621F8024D4FF4E86000F0BFFABDF8C3
:107D0000063042F21442934206D044F23440181A2C
:107D100018BF012003B030BD204603B030BD00BF06
:107D2000E8690020054B002202204FF0FF31186067
:107D3000C3E908119A6283F82C207047E869002093
:107D4000024A034B10681B685840704760000010DF
:107D5000640000100A4A0B4B1168C1711168090ACE
:107D6000817151884171D27802711A68C2701A68A3
:107D7000120A82705A884270DB780370704700BF25
:107D8000600000106400001000207047704700BFC2
:107D9000704700BF38B5054CA4F1500554F8083DB4
:107DA0001B6820469847AC42F8D138BD746A002061
:107DB000704700BF70B5214C257882B0ADB16378B3
:107DC0006BB3A3786BB3E3786BB323796BB363794D
:107DD0006BB3A3796BB3E3796BB3237A23B1637A83
:107DE000092513B102B070BD082506464378144832
:107DF00031610A460121615500EBC50035703BB188
:107E00000023009342F210711EF022FE02B070BDFA
:107E1000009142F210711EF01BFE02B070BD0125F0
:107E2000E3E70225E1E70325DFE70425DDE7052594
:107E3000DBE70625D9E70725D7E700BF186A00204A
:107E4000246A002010B5064C037804EBC3042046D6
:107E50001EF046FE2046BDE810401EF00DBE00BFDD
:107E6000246A00200078024B03EBC0001EF038BEED
:107E7000246A002003780448044A00EBC30042F857
:107E800023101EF059BE00BF246A0020746A00202F
:107E90001BF09ABE10B504461BF096FE001B10BDE9
:107EA00038B5084C04F15005204608341EF0C8FDD2
:107EB000AC42F9D1044A05490020BDE8384020F021
:107EC0007BBD00BF246A002000600020957D020079
:107ED00070B5304C304E03F021FF0025A06835709E
:107EE00001211FF03BF8A06801211FF077F8294617
:107EF000A0691FF033F8294660691FF02FF8606809
:107F000001211FF02BF8606801211FF067F894F839
:107F10002C3023BB206A421C0CD0636A013309D089
:107F200001211FF01BF80121606A1FF017F894F877
:107F30002C500DB3012160681FF010F8002160681B
:107F40001FF04CF80A201BF04BFE606801211FF067
:107F500045F814201BF044FE0023337070BD294601
:107F6000206A1EF0FBFF606A01211EF0F7FF294620
:107F7000606A1FF033F8DDE7606A431CDAD0236AD9
:107F80000133D7D001211FF029F82946206A1FF0BC
:107F900025F8CFE7E86900209C6A0020024B0146E3
:107FA000042258691BF058BCE869002010B50B4C3E
:107FB000012160681EF0D2FF002160681FF00EF8FA
:107FC0000A201BF00DFE606801211FF007F8142045
:107FD0001BF006FE024B00221A7010BDE86900205B
:107FE0009C6A002038B5074D40F2E93403E01BF0ED
:107FF000F7FD013C04D0A8691FF00CF80128F6D069
:1080000038BD00BFE869002038B5174B174D002474
:108010001C70FFF7BBFE2146A8681EF0DFFF144B63
:10802000144893E8060020F085F9C021114820F09B
:10803000EBF921460F4820F0E7F90E4820F0DEF971
:10804000A86801211EF0CAFF40F2E93403E01BF0EA
:10805000C7FD013C04D0A8691EF0DCFF0128F6D062
:10806000BDE83840FFF794BE9C6A0020E869002014
:10807000A06A0020386D00202DE9F0411C4E154605
:1080800080460C4603F05CFAB06800211EF0A6FFA3
:10809000184B194893E8060020F04CF94146164861
:1080A00020F0B2F95DB1013D134F14FA85F5013CA2
:1080B00014F8011F384620F0A7F9AC42F8D10E4859
:1080C00020F09CF90121B0681EF088FFB8F1840F00
:1080D0000BD040F2E93403E01BF082FD013C04D0F8
:1080E000B0691EF097FF0128F6D0BDE8F08100BF0F
:1080F000E8690020A06A0020386D0020F8B51D4D09
:10810000164607460C4603F01BFAA86800211EF02D
:1081100065FF194B194893E8060020F00BF9394622
:10812000164820F071F90021144820F06DF966B16D
:10813000013E124F14FA86F6013C0021384620F029
:1081400063F904F8010FB442F7D10C4820F056F956
:108150000121A8681EF042FF40F2E93403E01BF061
:108160003FFD013C04D0A8691EF054FF0128F6D061
:10817000F8BD00BFE8690020A06A0020386D00202B
:10818000F8B51E4D074616460C4603F0D9F9A86807
:1081900000211EF023FF1A4B1A4893E8060020F036
:1081A000C9F80D21174820F02FF9390A154820F099
:1081B0002BF9F9B2134820F027F95EB1013E114FB7
:1081C00014FA86F6013C14F8011F384620F01CF919
:1081D000B442F8D10B4820F011F90121A8681EF033
:1081E000FDFE40F2E93403E01BF0FAFC013C04D050
:1081F000A8691EF00FFF0128F6D0F8BDE86900203D
:10820000A06A0020386D002070B5194D04460E4656
:1082100003F096F9A86800211EF0E0FE154B164801
:1082200093E8060020F086F80D21134820F0ECF8C2
:10823000210A114820F0E8F8E1B20F4820F0E4F8F4
:1082400031460D4820F0E0F80B4820F0D7F8A86838
:1082500001211EF0C3FE40F2E93403E01BF0C0FC34
:10826000013C04D0A8691EF0D5FE0128F6D070BDEF
:10827000E8690020A06A0020386D0020F8B5214D83
:10828000074616460C4603F05BF9A86800211EF06D
:10829000A5FE1D4B1D4893E8060020F04BF81D215C
:1082A0001A4820F0B1F8390A184820F0ADF8F9B2B0
:1082B000164820F0A9F80021144820F0A5F866B16E
:1082C000013E124F14FA86F6013C0021384620F098
:1082D0009BF804F8010FB442F7D10C4820F08EF857
:1082E0000121A8681EF07AFE40F2E93403E01BF099
:1082F00077FC013C04D0A8691EF08CFE0128F6D062
:10830000F8BD00BFE8690020A06A0020386D002099
:1083100070B51C4D044603F013F9A86800211EF047
:108320005DFE194B194893E8060020F003F81D2163
:10833000164820F069F8210A144820F065F8E1B2E7
:10834000124820F061F80021104820F05DF800216B
:108350000E4820F059F806460C4820F04FF8A8685F
:1083600001211EF03BFE40F2E93403E01BF038FC33
:10837000013C04D0A8691EF04DFE0128F6D030461D
:1083800070BD00BFE8690020A06A0020386D0020A1
:10839000F8B51D4D164607460C4603F0D1F8A868FF
:1083A00000211EF01BFE194B194893E806001FF030
:1083B000C1FF0E21164820F027F8B6B239461448FE
:1083C00020F022F85EB1013E114F14FA86F6013C0E
:1083D00014F8011F384620F017F8B442F8D10C48C1
:1083E00020F00CF80121A8681EF0F8FD40F2E934F5
:1083F00003E01BF0F5FB013C04D0A8691EF00AFE67
:108400000128F6D0F8BD00BFE8690020A06A00206E
:10841000386D0020F8B51F4D164607460C4603F090
:108420008FF8A86800211EF0D9FD1B4B1B4893E86C
:1084300006001FF07FFF1E2118481FF0E5FF394698
:1084400016481FF0E1FFB6B2002114481FF0DCFF10
:1084500066B1013E114F14FA86F6013C0021384600
:108460001FF0D2FF04F8010FB442F7D10B481FF000
:10847000C5FF0121A8681EF0B1FD40F2E93403E018
:108480001BF0AEFB013C04D0A8691EF0C3FD01281F
:10849000F6D0F8BDE8690020A06A0020386D002001
:1084A000022103F047BA00BF034B1B68022B0CBF2D
:1084B00002200120704700BFE86900202DE9F84F35
:1084C000B44C94F82A3053B994F82C300BB9BDE869
:1084D000F88F606A0121BDE8F84F1EF07FBDAE4FF6
:1084E0003B78002B60D0AD4E40F2E93503E01BF045
:1084F00077FB013D04D0A0691EF08CFD0128F6D069
:108500000021A0681EF06AFD96E80600A4481FF04E
:1085100011FF1D21A2481FF077FF0921A0481FF07D
:1085200073FF20219E481FF06FFF00219C481FF021
:108530006BFF00219A481FF067FF074698481FF01D
:108540005DFF0121A0681EF049FD40F2E93503E01E
:108550001BF046FB013D04D0A0691EF05BFD012825
:10856000F6D0A06800211EF039FD96E806008C4880
:108570001FF0E0FE0D218A481FF046FF09218848C0
:108580001FF042FF202186481FF03EFF47F0080100
:10859000C9B283481FF038FF81481FF02FFF012127
:1085A000A0681EF01BFD8FE740F2E93503E01BF0E9
:1085B00017FB013D04D0A0691EF02CFD0128F6D068
:1085C000764EA06800211EF009FD96E8060074486A
:1085D0001FF0B0FE1D2172481FF016FF05217048E4
:1085E0001FF012FF80216E481FF00EFF00216C4823
:1085F0001FF00AFF00216A481FF006FF8346684803
:108600001FF0FCFE0121A0681EF0E8FC40F2E935F5
:1086100003E01BF0E5FA013D04D0A0691EF0FAFC6E
:108620000128F6D00021A0681EF0D8FC96E80600CC
:108630005B481FF07FFE1D2159481FF0E5FE052114
:1086400057481FF0E1FE832155481FF0DDFE002151
:1086500053481FF0D9FE002151481FF0D5FE824635
:108660004F481FF0CBFE0121A0681EF0B7FC40F27E
:10867000E93503E01BF0B4FA013D04D0A0691EF017
:10868000C9FC0128F6D00021A0681EF0A7FC96E8DE
:10869000060043481FF04EFE1D2141481FF0B4FE66
:1086A00005213F481FF0B0FE84213D481FF0ACFE7D
:1086B00000213B481FF0A8FE002139481FF0A4FE0E
:1086C000814637481FF09AFE0121A0681EF086FC03
:1086D00040F2E93503E01BF083FA013D04D0A069C4
:1086E0001EF098FC0128F6D00021A0681EF076FC50
:1086F00096E806002A481FF01DFE1D2128481FF09D
:1087000083FE052126481FF07FFE852124481FF0A7
:108710007BFE002122481FF077FE002120481FF039
:1087200073FE80461E481FF069FE0121A0681EF0FE
:1087300055FC40F2E93503E01BF052FA013D04D04C
:10874000A0691EF067FC0128F6D00021A0681EF089
:1087500045FC96E8060012481FF0ECFD0D2110487C
:108760001FF052FE05210E481FF04EFE80210C48DE
:108770001FF04AFE4BF00801C9B209481FF044FE41
:1087800007481FF03BFE0121A0681EF027FC40F2C5
:10879000E9350BE0E86900209C6A0020A06A00200F
:1087A000386D00201BF01CFA013D04D0A0691EF0BA
:1087B00031FC0128F6D00021A0681EF00FFC96E8DD
:1087C000060052481FF0B6FD0D2150481FF01CFE58
:1087D00005214E481FF018FE83214C481FF014FE5F
:1087E0000AF0F70149481FF00FFE48481FF006FE47
:1087F0000121A0681EF0F2FB40F2E93503E01BF016
:10880000EFF9013D04D0A0691EF004FC0128F6D068
:108810000021A0681EF0E2FB96E806003B481FF02E
:1088200089FD0D2139481FF0EFFD052137481FF064
:10883000EBFD842135481FF0E7FD09F0F7013348CF
:108840001FF0E2FD31481FF0D9FD0121A0681EF0A4
:10885000C5FB40F2E93503E01BF0C2F9013D04D04D
:10886000A0691EF0D7FB0128F6D00021A0681EF0F9
:10887000B5FB96E8060025481FF05CFD0D21234856
:108880001FF0C2FD052121481FF0BEFD85211F48B4
:108890001FF0BAFD08F0F7011C481FF0B5FD1B489A
:1088A0001FF0ACFD0121A0681EF098FB40F2E935F5
:1088B00003E01BF095F9013D04D0A0691EF0AAFB6E
:1088C0000128F6D00021A0681EF088FB96E806007B
:1088D0000E481FF02FFD0D210C481FF095FD0921BA
:1088E0000A481FF091FD202108481FF08DFD062148
:1088F00006481FF089FD05481FF080FD0121A06892
:108900001EF06CFB01233B70EEE500BF386D0020CC
:108910002DE9F84FB44C94F82A3053B994F82C3020
:108920000BB9BDE8F88F606A0021BDE8F84F1EF072
:1089300055BBAE4F3B78002B5FD0AD4E40F2E935D2
:1089400003E01BF04DF9013D04D0A0691EF062FB6D
:108950000128F6D00021A0681EF040FB96E8060032
:10896000A4481FF0E7FC1D21A2481FF04DFD09217E
:10897000A0481FF049FD20219E481FF045FD002121
:108980009C481FF041FD00219A481FF03DFD07461D
:1089900098481FF033FD0121A0681EF01FFB40F234
:1089A000E93503E01BF01CF9013D04D0A0691EF07D
:1089B00031FB0128F6D0A06800211EF00FFB96E8DD
:1089C00006008C481FF0B6FC0D218A481FF01CFDE4
:1089D000092188481FF018FD202186481FF014FD4A
:1089E00007F0F70183481FF00FFD82481FF006FDD6
:1089F0000121A0681EF0F2FA90E740F2E93503E0A9
:108A00001BF0EEF8013D04D0A0691EF003FB012825
:108A1000F6D0774EA06800211EF0E0FA96E8060036
:108A200074481FF087FC1D2172481FF0EDFC0521E2
:108A300070481FF0E9FC80216E481FF0E5FC002122
:108A40006C481FF0E1FC00216A481FF0DDFC834602
:108A500068481FF0D3FC0121A0681EF0BFFA40F265
:108A6000E93503E01BF0BCF8013D04D0A0691EF01D
:108A7000D1FA0128F6D00021A0681EF0AFFA96E8DE
:108A800006005C481FF056FC1D215A481FF0BCFC34
:108A9000052158481FF0B8FC832156481FF0B4FC4C
:108AA000002154481FF0B0FC002152481FF0ACFCDC
:108AB000824650481FF0A2FC0121A0681EF08EFAE9
:108AC00040F2E93503E01BF08BF8013D04D0A069CA
:108AD0001EF0A0FA0128F6D00021A0681EF07EFA50
:108AE00096E8060043481FF025FC1D2141481FF071
:108AF0008BFC05213F481FF087FC84213D481FF077
:108B000083FC00213B481FF07FFC002139481FF007
:108B10007BFC814637481FF071FC0121A0681EF0E4
:108B20005DFA40F2E93503E01BF05AF8013D04D04C
:108B3000A0691EF06FFA0128F6D00021A0681EF08F
:108B40004DFA96E806002B481FF0F4FB1D2129483A
:108B50001FF05AFC052127481FF056FC85212548A7
:108B60001FF052FC002123481FF04EFC0021214839
:108B70001FF04AFC80461F481FF040FC0121A068FE
:108B80001EF02CFA40F2E93503E01BF029F8013D14
:108B900004D0A0691EF03EFA0128F6D00021A0689A
:108BA0001EF01CFA96E8060012481FF0C3FB0D21C8
:108BB00010481FF029FC05210E481FF025FC8021DC
:108BC0000C481FF021FC4BF00801C9B209481FF006
:108BD0001BFC08481FF012FC0121A0681EF0FEF9E2
:108BE00040F2E9350CE000BFE86900209C6A0020F3
:108BF000A06A0020386D00201AF0F2FF013D04D079
:108C0000A0691EF007FA0128F6D00021A0681EF026
:108C1000E5F996E8060052481FF08CFB0D215048FC
:108C20001FF0F2FB05214E481FF0EEFB83214C485C
:108C30001FF0EAFB0AF0F70149481FF0E5FB48483E
:108C40001FF0DCFB0121A0681EF0C8F940F2E935F5
:108C500003E01AF0C5FF013D04D0A0691EF0DAF967
:108C60000128F6D00021A0681EF0B8F996E80600A9
:108C70003B481FF05FFB0D2139481FF0C5FB052164
:108C800037481FF0C1FB842135481FF0BDFB09F0B8
:108C9000F70133481FF0B8FB31481FF0AFFB01214B
:108CA000A0681EF09BF940F2E93503E01AF098FF46
:108CB000013D04D0A0691EF0ADF90128F6D00021D5
:108CC000A0681EF08BF996E8060025481FF032FBDD
:108CD0000D2123481FF098FB052121481FF094FB2C
:108CE00085211F481FF090FB08F0F7011C481FF07A
:108CF0008BFB1B481FF082FB0121A0681EF06EF960
:108D000040F2E93503E01AF06BFF013D04D0A069A1
:108D10001EF080F90128F6D00021A0681EF05EF94F
:108D200096E806000E481FF005FB0D210C481FF0C9
:108D30006BFB09210A481FF067FB202108481FF040
:108D400063FB062106481FF05FFB05481FF056FB3A
:108D50000121A0681EF042F901233B70EEE500BF3F
:108D6000386D002038B50A4C94F82C5075B9606AFB
:108D7000431C0BD0236A013308D001211EF02EF9C9
:108D80002946206ABDE838401EF028B938BD00BF2A
:108D9000E869002010B5094C94F82C1069B9606A94
:108DA000431C0AD0236A013307D01EF017F9206A4A
:108DB0000121BDE810401EF011B910BDE869002086
:108DC000034B044A1A600121002259711A7170473D
:108DD000A06A002080841E00704700BF037883B122
:108DE000012B0DD1427852B90C4A117839B182F871
:108DF0004830037A82F84930437A82F84A30704723
:108E00007047074A437812681BB19369002BF6D06C
:108E100018471369002BF2D0184700BFF46A0020EE
:108E2000CC6A002043783BBB2DE9F041B14C25785A
:108E30008AB025B1B4F846300133A4F84630437BFC
:108E4000BBB1C378E02B18D0027B81688DF8193054
:108E500000248DF81820A84B8C541B68027C8DF8D8
:108E60001C208168C289DB680591ADF81A2005A82D
:108E700098470AB0BDE8F081704735B9037B042BF1
:108E80007DD09E48FEF7EEFFF3E7826813786370AB
:108E9000072BEED8DFE803F0403D396E562F0E0465
:108EA000037B032B00F0D180072B00F0E18001232E
:108EB0006370DEE7924B1B788DF80C30002502239F
:108EC00002A8A570A4F8465025708DF8083005F06A
:108ED0000DF98C4B187805F055FE8B4B8DF814501E
:108EE0000FCB0AAD05E90F0005A805F00DFB2378AF
:108EF000002BBED1C5E70AA8012300F8143D05F0F8
:108F000003FB2378002BB4D1BBE70123A37063706C
:108F1000AFE702232371ACE7794A12788DF8182065
:108F20000023022205A8A4F8463023708DF81420EF
:108F300005F0DCF8734B187805F024FE2378002B3D
:108F400097D19EE7037B2371F22B4FF004011D465E
:108F500028BFF225012B61718BD96C49012300E0F8
:108F60008268D25C0133DCB20132AC4201F8012FDD
:108F7000F6D37EE700220123A270637079E783684D
:108F80001A78012A7FF47DAF5A78012A7FF479AFED
:108F90009A78012A7FF475AFDE78012E7FF471AFE5
:108FA0000AAF4FF0020807F8208D3846A570A4F8E4
:108FB000465084F8485084F8495084F84A50267046
:108FC000667084F8048004F0B1FF4D4B9DF80C20CE
:108FD0001A7038468DF808808DF80C6005F086F818
:108FE000284605F0CFFD4A494448FEF7E3FE41F22A
:108FF00088314248FEF73EFF94F84830002B62D09B
:1090000040F2035194F8492094F84A3084F84850CB
:109010006670A180A271E37101A9207904F0F8FEC5
:10902000002841D000238DF814300793ADF820308C
:109030008DF822303148FEF705FF05A805F062FBE8
:109040002378002B7FF415AF1BE702238DF8143033
:109050005178937805A843EA0123ADF8183005F05C
:1090600053FA237801226270002B7FF402AF08E7E5
:1090700003238DF814305178937843EA0123ADF837
:1090800018301379D07851791B0243EA00430B431F
:10909000642101FB03F3079393798DF8203005A831
:1090A00005F032FA2378DDE7A37822799BB9E02036
:1090B00016498DF81430ADF820208DF822308DF847
:1090C00018000791B6E76378012B23D0042BA3D1B6
:1090D00001236370A0E70125E0200C49ADF82020B2
:1090E0004FF400638DF814508DF818000791ADF817
:1090F00022309FE7F46A0020CC6A0020406B0020F9
:10910000F06A00207E6B0020D06A0020F96A0020FF
:1091100025910200B4F84630A37102221B1263713C
:10912000227179E710B52E4C94F8483086B013B30D
:10913000002340F2035094F8491094F84A2084F830
:1091400048300123A080A171E2716370032001A95E
:1091500004F05EFEE8B100238DF808300493ADF80A
:1091600014308DF816301F48FEF76CFE02A805F08B
:10917000C9FA06B010BD6378012B28D0042B08BFB4
:109180000123207908BF637001A904F041FE002883
:10919000E1D1A37822795BB9E02013498DF808303A
:1091A000ADF814208DF816308DF80C000491DAE734
:1091B0000124E0200C49ADF814204FF400638DF831
:1091C00008408DF80C000491ADF81630CBE7B4F8E8
:1091D0004630A37102201B1263712071B7E700BFF4
:1091E000F46A0020406B0020F96A00200246024B1E
:1091F0000068516803C37047606B00200246024B51
:109200000068516803C37047586B002010B40346D0
:10921000044C59689A680068DB680FC45DF8044B19
:10922000704700BFEC60002010B40346044C59683E
:109230009A680068DB680FC45DF8044B704700BF94
:109240000C61002010B40346044C59689A68006809
:10925000DB680FC45DF8044B704700BFFC60002062
:10926000014B1860704700BF746B002000B5494B7C
:109270001B78013BDBB285B00022082BCDE901222F
:10928000039296BF444A0123D35C10B3834223D395
:1092900001380B2820D8DFE800F0233B42484F5527
:1092A0005C62696F76060B2B1DD94FF47F43ADF8D6
:1092B0000E30062201A9394800F032FC062201A92D
:1092C000374800F02DFC374801A9062200F028FCA1
:1092D000012005B05DF804FB002005B05DF804FB3B
:1092E000FF22ADF80420022BE3D801A901222B486C
:1092F00000F016FC01A90122294800F011FC01A987
:109300000122284800F00CFC012005B05DF804FBA8
:10931000012BEAD94FF47F42ADF80420E3E7022B9A
:10932000E3D9FF23ADF80630C3E7032BDBD94FF4B5
:109330007F43ADF80630BCE7042BD4D9FF23ADF84A
:109340000830B6E7052BCED94FF47F43ADF808308F
:10935000AFE7062BC7D9FF23ADF80A30A9E7072BE3
:10936000C1D94FF47F43ADF80A30A2E7082BBAD930
:10937000FF23ADF80C309CE7092BB4D94FF47F43A1
:10938000ADF80C3095E70A2BADD9FF23ADF80E30C0
:109390008FE700BF806B002018D20400A86A00206D
:1093A000B46A0020C06A00202DE9F04FD9B00EAD9C
:1093B00085E806000646AD4CAD4ADFF800C32660DE
:1093C00095E80300AB4FAC4E91801060C1F30721CC
:1093D000639A8CF80030397095F9019032709DF8DD
:1093E0008881002B00F06E81A448A54990F807C041
:1093F00043780278CDF814C090F806C0CDF810C0BC
:1094000090F805C0CDF80CC090F804C0CDF808C0A5
:1094100090F803C08078CDE9000C38A821F0D2F88C
:109420009848994990F807C043780278CDF814C05D
:1094300090F806C0CDF810C090F805C0CDF80CC06B
:1094400090F804C0CDF808C090F803C08078CDE94A
:10945000000C28A821F0B6F88C488D4990F803C07C
:1094600043780278CDF804C090F802C0CDF800C06F
:1094700090F80FC0CDF834C090F80EC0CDF830C0D1
:1094800090F80DC0CDF82CC090F80CC0CDF828C0D5
:1094900090F80BC0CDF824C090F80AC0CDF820C0D9
:1094A00090F809C0CDF81CC090F808C0CDF818C0DD
:1094B00090F807C0CDF814C090F806C0CDF810C0E1
:1094C00090F805E090F804C0CDF808C048A8CDF8A1
:1094D0000CE021F077F823686E491C686E4A6F48EB
:1094E0006F4B0C606F4C10605360104694604346A5
:1094F000327804F00DFB8346002840F079816A4CF5
:109500002B78237120460223237004F0EFFD1423EF
:10951000204684F80490237004F0E8FD15232046CB
:1095200084F80490237004F0E1FD16222B79227058
:10953000204623714FF0070A04F0D8FDAB78237161
:1095400020465A4D84F800A004F0D0FD204684F84F
:1095500000B084F8048004F0C9FD3878DFF8609129
:1095600005F010FB95E8070010AB83E80700032027
:109570000ECB04F0ABFF05F10C0393E8070013AB2F
:1095800083E8070004200ECB04F0A0FF05F11803C8
:1095900093E8070016AB83E8070005200ECB04F024
:1095A00095FF05F1240393E8070019AB83E8070052
:1095B00006200ECB04F08AFF05F1300393E8070084
:1095C0001CAB83E8070050460ECB04F07FFF05F18B
:1095D0003C0393E807001FAB83E8070048350ECB38
:1095E000082004F073FF95E8070022AB83E807002A
:1095F00003250ECB092004F069FF0B232046C4F895
:1096000004902572237004F071FD0A232046C4F8EB
:1096100004902572237004F069FD3378092B00F261
:10962000EA80DFE803F005ADCC0505050505ADAD25
:1096300058AD0024FF23CDF89A40CDF89640ADF800
:109640009E4025F8CC3D01222946194800F068FAD1
:1096500029460122174800F063FA174829460122DB
:1096600000F05EFA204659B0BDE8F08FCC6A0020C9
:10967000786B00207E6B0020806B0020586B0020F0
:1096800024D20400606B002054D20400EC6000205F
:1096900084D20400E06A0020E46A0020D98D020030
:1096A000258E0200DD8D0200686B0020C4D104000D
:1096B000A86A0020B46A0020C06A00207F6B0020E6
:1096C00008E6D3334D484E4990F807C043780278F6
:1096D000CDF814C090F806C0CDF810C090F805C0C1
:1096E000CDF80CC090F804C0CDF808C090F803C0C5
:1096F0008078CDE9000C28A820F064FF4148424959
:1097000090F803C043780278CDF804C090F802C006
:10971000CDF800C090F80FC0CDF834C090F80EC05E
:10972000CDF830C090F80DC0CDF82CC090F80CC02A
:10973000CDF828C090F80BC0CDF824C090F80AC02E
:10974000CDF820C090F809C0CDF81CC090F808C032
:10975000CDF818C090F807C0CDF814C090F806C036
:10976000CDF810C090F805E090F804C0CDF808C01E
:1097700038A8CDF80CE020F025FF244824496DE6F8
:1097800058AD00244FF47F43CDF89A40CDF8964071
:10979000ADF89E4025F8CC3D062229461D4800F034
:1097A000BFF9294606221C4800F0BAF929460622CC
:1097B0001A4800F0B5F9204659B0BDE8F08FFF23F4
:1097C000002425A906221348ADF89E30CDE9254492
:1097D000ADF89C4000F0A4F925A906220E4800F03F
:1097E0009FF90E4825A9062200F09AF920463AE78B
:1097F0004FF0FF3037E7002035E700BF606B0020F7
:1098000054D204000C610020DCD20400FC60002073
:1098100034D30400A86A0020B46A0020C06A002083
:1098200030B52249224A234B234DD878234B244C70
:109830002D7887B0CDE9021204938DF8140006ABA1
:1098400013E90F0084E80F0000238DF8043045BBB6
:109850001C4C032320462370656004F047FC1A4B20
:1098600004221B6822702046636004F03FFC05223E
:10987000164B22702046636004F038FC0622144B1D
:1098800022702046636004F031FC012320462370DF
:10989000237104F02BFC0F4B1B681B69984707B022
:1098A00030BD01A804F030FE07B030BD606B002071
:1098B000586B0020786B00207F6B0020EC6000204C
:1098C000D06A0020686B0020746B00200C610020BF
:1098D000FC600020CC6A002000B585B004A80123FC
:1098E00000F80C3D04F022FB9DF8080005B05DF87F
:1098F00004FB00BF1F4B1B78002B37D130B587B05E
:109900000D46044601A9007904F082FA58BB1A4BAF
:10991000607993F9013021792268D5B1174C8DF81F
:109920000C002078ADF81410002814BF0820012086
:10993000012104928DF816308DF817008DF808106B
:1099400002A804F0DFFE003018BF0120404207B03B
:1099500030BD8DF808508DF80C00ADF8141004924D
:109960008DF81630ECE74FF0FF30F0E74FF0FF30A6
:10997000704700BFF46A0020786B0020806B0020E5
:1099800070B584B004AD002405F80C4D0646284699
:1099900004F0CCFA9DF80830B34213D0012E14D055
:1099A00022D3022E1BD11C1C18BF0124284664425E
:1099B0008DF8086004F09AFB88B9144B1B68304698
:1099C0005B699847204604B070BD012BFAD0284649
:1099D0008DF8086004F08AFB04460028EDD04FF0B3
:1099E000FF34204604B070BD1BB91C46204604B0AD
:1099F00070BD28468DF8084004F078FB0446002826
:109A0000EDD1024B1B685B699847DBE7CC6A00200D
:109A100005F0CCB8014B00225A707047406B002013
:109A2000884204DB9042CCBF002001207047002018
:109A3000704700BF0B09B3EB121F12D8914210D22E
:109A40001BB210B4012230F8134001F00F0102FAEA
:109A500001F124EA010120F813105DF8044B1046CF
:109A600070470020704700BF002856D0914255D261
:109A7000531E5B1A51FA83F330B4841C00EB41018E
:109A800004EB4304002031F8025B05F00103AA0750
:109A900048BF01336A0744BF0133DBB22A0744BF22
:109AA0000133DBB2EA0644BF0133DBB2AA0644BF8E
:109AB0000133DBB26A0644BF5A1CD3B22A0644BF44
:109AC0005A1CD3B2EA0544BF5A1CD3B2AA0544BFFC
:109AD0005A1CD3B26A0544BF5A1CD3B22A0544BFEC
:109AE0005A1CD3B2EA0444BF5A1CD3B2AA0444BFDE
:109AF0005A1CD3B26A0444BF5A1CD3B22A0405D4F8
:109B000003448C42D8B2BED130BC70475A1C831873
:109B10008C42D8B2B7D130BC704770470020704734
:109B2000C0B3B9B3B2B32DE9F041031D0C1DA0427F
:109B300038BF99422FD30D2A2DD9C1F340050DB15D
:109B40000B880380A2EB050E6C005FFA8EFE0E19E7
:109B50004FEA5E08044400230133DFB256F804CB19
:109B600044F804CBB845F7D80EF0FE031D449E45DB
:109B7000EDB20DD02BB20135EDB231F8134020F823
:109B80001340AA4204D92DB231F8153020F815300F
:109B9000BDE8F0817047531EDBB201EB430302388E
:109BA000023931F8022F20F8022F9942F9D1EFE75C
:109BB00000B94A608A6070472DE9F047002B4DD00C
:109BC000013BDBB202F110070D460646144607EBD7
:109BD00003174FF0FF384FF0000946B1E5B9E560D3
:109BE000A8461034A742F8D14046BDE8F087606827
:109BF000FEF750F9824645BB6068FEF74BF9E36813
:109C0000834206D9002BECD01B1A984528BF9846F2
:109C1000E7E7C4F80C90E4E7D4E9020AFEF73AF962
:109C20008245F6D9D4F80CA0BAF1000FD9D0A068BB
:109C3000FEF730F9AAEB00004045D2D2D4E9020881
:109C4000FEF728F9A8EB0008CBE7A068FEF722F999
:109C50008245D1D2A068FEF71DF9D0E74FF0FF385A
:109C60004046BDE8F08700BF0378032B01D00020F9
:109C7000704790F9013003F00F02C3F303138A70A9
:109C80004B7083788B80C27843EA02238B80037900
:109C9000C3F3021203F00F03CA700B700520704764
:109CA0002DE9F04F0546407895F902E095F90390CB
:109CB00085B0A0B9B5F9026095F905E095F906906F
:109CC00040F60F74A6420AD095F907A04C4681F8D9
:109CD00000E0147083F800A005B0BDE8F08F28788C
:109CE00095F904A000285DD095F91040744514DD65
:109CF00000F0FD0095F9194095F918604C4504DC19
:109D00004E45B8BF00F0FB004C460728DFD1BAF142
:109D1000000FDCD195F907A0D9E795F911407445FA
:109D2000E6DB2C7A0094002CE2D0EE686F69CDF867
:109D30000490002402920393A346A1463A46334678
:109D40005FFA89F40BEB4B0633F8148002EB8606BE
:109D5000002448FA04F717F0010F04F101040CD0B5
:109D600096F808C04CF303170CF00F0C7FB2E645D1
:109D700007F00F0701DBBE4510DD102C06F10C06C5
:109D8000E7D10BF1100B009C5FFA8BFB5C4509F1EE
:109D90000109D5D8DDE90192039BA9E7DDE901922C
:109DA000039BA7E74C4692E7012370B503FA00F046
:109DB0000E461FF039F9044630460D461FF024F9CF
:109DC00002460B46204629461FF0C2FA0022034BEA
:109DD0001FF094F941EC100B70BD00BF00408F40A4
:109DE00008B51FF011F902460B46002002491FF08A
:109DF000AFFA41EC100B08BD000020402DE9F84FF0
:109E000057EC106B0446043840001D4692468B46C2
:109E10001FF00AF932463B461FF070F980464FEAC0
:109E20004B0089461FF0F0F802460B464046494673
:109E30001EF0AEFF32463B461FF08AFA41EC100B93
:109E40001EF0C2FD51EC100B1FF01AFC844238BF0B
:109E500004462C6000221A4B304639461FF04EF95A
:109E60008046204689461FF0CFF8002204460D4662
:109E7000144B304639461FF041F902460B46204646
:109E800029461FF03BF902460B46404649461EF064
:109E90007DFF044650460D461FF0B6F80B460246BD
:109EA000294620461EF072FF41EC100B1EF08CFD7F
:109EB00051EC100B1FF0BCFB0A9B1860BDE8F88F3B
:109EC000000010400000E03F400007EE900A00B59F
:109ED000F8EE677A83B030EE670A30EE600A1EF063
:109EE0000BFFFDEEC07ACDED017A9DF9040003B0C1
:109EF0005DF804FBD0E9002170B4C37A447A03EB27
:109F0000430302EB830300255B7A1B01CA18CB5A7B
:109F1000D560817A4CB9C568124CA5420ED864242C
:109F2000A9B9017A99B970BC70470029FBD00169C1
:109F3000013B01FB03F3D36070BC70470A4E42F251
:109F40001074B54298BF4FF47A740029E9D0A34247
:109F500038BF23460169013B01FB03F3D36070BCAA
:109F6000704700BF7FEE36007F3F5C0201207047E4
:109F7000034B93F82930002B14BF35200320704782
:109F8000E8690020002001F085BB00BF194B10B527
:109F90001860194801F080FA002001F07BFB174B94
:109FA00093F82B3013BB012001F006FC002108467A
:109FB00001F036FE0421002001F0BCFC00234FF626
:109FC000FF711A46084601F003FC0D4A0D4C0E497C
:109FD0000123104653706370FDF7ECFE20460B49D9
:109FE000FDF7E8FE0A4B00221A7010BD002001F0B8
:109FF000E3FBDBE7286D0020C1A10200E869002037
:10A00000106D00209C6C002091A10200A9A102000B
:10A01000836B00200B4B10B518600B480B4C01F004
:10A0200081FA0B4A0B490123104653706370FDF708
:10A03000C1FE20460849FDF7BDFE084B00221A70FC
:10A0400010BD00BF286D0020C1A102009C6C002043
:10A05000106D002091A10200A9A10200836B0020D5
:10A0600008B501F061FA0438C0B2032896BF024B6C
:10A070000020185C08BD00BF8CD3040001F0DCBBDD
:10A08000FEF746B9FEF7C0B838B50C460546FEF7F0
:10A0900081FE40F2012100231A46084601F098FB98
:10A0A00001F042FC0C4B01280C480CBF83F8274000
:10A0B00083F8204001F002FD21462846002201F0ED
:10A0C00081FA074B07481968FDF7D4FE0548BDE83B
:10A0D0003840FDF7B7BE00BFB46C0020CC6C002048
:10A0E0000C6D0020106D002008B54FF0040001F049
:10A0F000BDFA0220BDE8084019F072BD38B50D4622
:10A1000000234FF6FF7104461A46084601F060FB33
:10A1100029462046BDE8384001F006BB01F05EBD8F
:10A1200008B5FEF71FFE00234FF4C0711A4608461B
:10A1300001F04EFBBDE8084001F014BB38B50D46F8
:10A14000144601F079FB2846FEF7AAF901F016FB48
:10A1500020461EF069FF084B084C00221EF0CEFF7F
:10A160001FF08EFA01462046FDF784FE2046BDE82A
:10A170003840FDF767BE00BF00408F40106D0020E3
:10A1800008B501F05BFD08BDFDF7FABFFEF776B834
:10A1900008B5FDF7FBFD034B01221A70BDE808402E
:10A1A000FDF7F6BD096D002008B5FDF7EFFD034B87
:10A1B00001221A70BDE80840FDF7EABD086D0020D5
:10A1C00008B5FDF7E3FD034B01221A70BDE8084016
:10A1D000FDF7DEBD836B002070B57C4C237882B028
:10A1E00023BB7B4B1A789AB97A4B1A780AB902B01A
:10A1F00070BD002278481A70FDF734FE774B1B685B
:10A20000002BF4D05B68002BF1D0984702B070BDF2
:10A21000002273481A70FDF725FE704B1B68002B57
:10A22000E2D0DB68002BDFD09847DDE7FDF7AEFD1D
:10A2300000232370FDF7ACFD01F0ECFA04464FF665
:10A24000FF7001F049FDE10737D4A20752D426067A
:10A2500042D4A5051AD4600705D5604B1B6813B11D
:10A260005B6903B19847A106BBD55D48FDF7FAFDD0
:10A270005C4B1B78002B00F09080584B1B68002B28
:10A28000AFD0DB68002BACD09847AAE701F04CF9BF
:10A29000042870D001F048F90528DCD15048FDF7BA
:10A2A000E1FD012001F046F94C4B1B68002BDAD090
:10A2B000DA68002A6DD09047CDE74748FDF7D2FD18
:10A2C000012001F037F9454B1B68002BBDD01B68FE
:10A2D000002BBAD09847B8E7012001F02BF93F4B8B
:10A2E0001B68002BB5D0DB69002BB2D0C4F3002073
:10A2F0009847AEE73A48FDF7B5FD3A4B1D78002D7B
:10A300004FD0FF22002138481FF0CDFA630616D542
:10A31000FF22002134481FF0C6FAFF220DF1070189
:10A32000314801F021F9314801F096FC2B4B1B68B4
:10A33000002B8CD01B69002B89D0984787E72B4DC9
:10A340002948FF220DF1070101F00EF9284601F01E
:10A3500083FC224B1B68002B3FF479AF9E68002ED4
:10A360003FF475AF95F90D3095F90C209DF8071065
:10A370001D48B0476BE71848FDF774FD012001F058
:10A38000D9F8164B1B68002B3FF46DAF5A68002AB2
:10A3900091D162077FF567AF62E7012001F0CAF84B
:10A3A0006BE7012001F0C6F8294640F60210FDF7E0
:10A3B0002BFF40F64410FDF7ABFF40F00201C9B29D
:10A3C00040F64410FDF720FF9BE700BF836B0020A1
:10A3D000086D0020096D0020106D0020286D002000
:10A3E0009C6C0020976C0020986B0020846B0020F0
:10A3F00001280A480AD0C37F012B00D07047084BC0
:10A4000080F820101830197001F058BB044B80F808
:10A4100027101830197001F051BB00BFB46C002038
:10A420001D610020000000002DE9F04F884683B038
:10A43000002879D0012803D0002003B0BDE8F08FB8
:10A44000DFF8A8A1644A9AF851309AF850B0BAF8E7
:10A450002400043BCBF10C0103EB430301EB43036A
:10A4600002EBC303D3E900451EF0DEFD0646CBEB4D
:10A4700048009AF828809AF82630073000EB8800C8
:10A48000012B4FEA800008BF14380F461EF0CCFDA8
:10A490009AF85330804689460BB1ABF1020B4FEA74
:10A4A0008B001EF0C1FD02460B46404649461EF099
:10A4B0004FFF41EC100B1EF087FA9AF8520053EC54
:10A4C000102B00F003000430CDE900231EF0ACFD9A
:10A4D000DDE900231EF012FE00220023804689469B
:10A4E0001FF092F8002864D03046394600223B4BDA
:10A4F0001EF04EFC02460B46404649461EF048FC04
:10A5000022462B461EF0FAFD31A3D3E900231EF0AC
:10A510003FFC41EC100B1EF0DFFA51EC100B1FF06A
:10A52000AFF803B0BDE8F08FDFF8C0A0BAF81A307A
:10A530009AF81D0003EBD0001EF076FD9AF81F304C
:10A5400006460F46002493B3254D40461EF06CFD91
:10A5500032463B461EF01CFC22462B461EF018FCE1
:10A560009AF82140022C02460B4627D01046194685
:10A5700000221C4B1EF0C2FD0446DAF844000D46D2
:10A580001EF042FD02460B46204629461EF0E0FE24
:10A590000022154B1EF0B2FD41EC100B1EF024FB07
:10A5A00051EC100B1FF06CF803B0BDE8F08F0025E4
:10A5B000CBE74FF000084FF0000995E700224FF07D
:10A5C00080431EF0E5FB02460B46CFE7AFF3008069
:10A5D0002B8716D9CEF7EF3FC0D404000080284067
:10A5E0000000F03F0000204000408F40B46C00208D
:10A5F00010B50446FEF7B6FB00234FF6FF711A466E
:10A60000084601F0E5F80F4B1B789BB12CB96FF0B1
:10A610007F40BDE8104001F055B821460A48FDF7DB
:10A6200029FC0948FDF70EFC6FF07F40BDE81040A3
:10A6300001F048B8054B1868BDE81040800101F0F2
:10A6400041B800BF976C00209C6C0020986C0020E3
:10A6500000234FF6FF7110B51A460446084601F074
:10A66000B7F80F4B1B789BB12CB96FF07F40BDE85A
:10A67000104001F03DB821460A48FDF7FBFB0948B0
:10A68000FDF7E0FB6FF07F40BDE8104001F030B80F
:10A69000054B1868BDE81040800101F029B800BFE3
:10A6A000976C00209C6C0020986C00200128F8B565
:10A6B000044621D1284D01F027F92E786B78B3425A
:10A6C00003D1264C01232370F8BD20466E7001F0A3
:10A6D0001BF92F786B78BB4217D1204C01232370D4
:10A6E0001EBB14214FF4E860FDF78EFD242140F2DB
:10A6F0004170FDF789FDE5E7002001F005F9164AF4
:10A70000164B002151701C70F8BD20466F70FFF78A
:10A71000CDFFAFB914214FF4E860FDF775FD24219A
:10A7200040F24170FDF770FDD7E734214FF4E86047
:10A73000FDF76AFD442140F24170FDF765FDC1E778
:10A7400034214FF4E860FDF75FFD442140F2417091
:10A75000FDF75AFDC1E700BF2C6D00202E6D0020D3
:10A760002DE9F84F0546884616461C4600F0DCFEEB
:10A770000438C0B2032803D85F4B1B5C002B45D1C3
:10A78000012D0CD15D4F284601F0BEF897F80090DE
:10A790007B784B4546D15A4D01232B7007E00020B2
:10A7A00001F0B2F8554A564B002151701D704046D9
:10A7B00001F042F8FEF7D6FA00234FF6FF711A4671
:10A7C000084601F005F84F4B1B782BB36FF07F4024
:10A7D00000F078FF012019F003FAFDF759FB054658
:10A7E00004E001F02BFA00B2864213DB2846FDF7A5
:10A7F00051FB8442F5D801244FF0040000F036FFED
:10A80000022019F0EDF92046BDE8F88F002420461B
:10A81000BDE8F88F0024EFE73B4B1868800100F09B
:10A8200051FFD7E7284687F8019001F06DF897F8B7
:10A8300000A07B78534510D1314D01232B70B9F125
:10A84000000F25D114214FF4E860FDF7DDFC242131
:10A8500040F24170FDF7D8FC9EE7284687F801A03A
:10A8600001F052F897F800B07B785B451BD1244D7E
:10A8700001232B70BAF1000F28D114214FF4E860A6
:10A88000FDF7C2FC242140F24170FDF7BDFCD4E786
:10A8900034214FF4E860FDF7B7FC442140F24170E9
:10A8A000FDF7B2FC78E7284687F801B0FFF7FEFE17
:10A8B000BBF1000F15D114214FF4E860FDF7A4FCA3
:10A8C000242140F24170FDF79FFCD0E734214FF482
:10A8D000E860FDF799FC442140F24170FDF794FCDB
:10A8E000ABE734214FF4E860FDF78EFC442140F2E1
:10A8F0004170FDF789FCBAE78CD304002C6D002071
:10A900002E6D0020976C0020986C00202DE9F041FE
:10A91000474C054601202570657000F0F5FF26784C
:10A920006378B3420FD1434C012323702DBB142114
:10A930004FF4E860FDF768FC242140F24170BDE867
:10A94000F041FDF761BC0120667000F0DDFF277863
:10A950006378BB421DD1374C01232370A6BB142161
:10A960004FF4E860FDF750FC242140F24170FDF700
:10A970004BFC01232370002DD9D034214FF4E86023
:10A98000FDF742FC442140F24170BDE8F041FDF783
:10A990003BBC0120677000F0B7FF94F8008063783B
:10A9A00043451CD1234C012323705FBB14214FF47A
:10A9B000E860FDF729FC242140F24170FDF724FCFA
:10A9C00001232370002ECAD034214FF4E860FDF734
:10A9D0001BFC442140F24170FDF716FCA4E7012066
:10A9E00084F80180FFF762FEB8F1000F15D1142141
:10A9F0004FF4E860FDF708FC242140F24170FDF7B8
:10AA000003FCCFE734214FF4E860FDF7FDFB442160
:10AA100040F24170FDF7F8FB9EE734214FF4E86007
:10AA2000FDF7F2FB442140F24170FDF7EDFBB9E781
:10AA30002C6D00202E6D00202DE9F04383B00F46D1
:10AA40009DF82C900A99BDF830E09DF834609DF88F
:10AA500038C09DF84480002856D0012840D1BA4A19
:10AA6000BA4CD25C84F85120CAB284F8400084F811
:10AA7000529084F85020002B00F09780012B40F07A
:10AA8000BD800C2940F0BA8084F853302376A4F8B6
:10AA900024E0AF4A0023127866F3070362F30F2322
:10AAA0006CF3174368F31F630020C4F8263000F0EE
:10AAB000F1FD94F84060002E40F08C80304600F0AC
:10AAC00023FFA44AA44B56701E70A44800F094FFC4
:10AAD000A34800F0F3FF94F85130062B00F0BA8041
:10AAE00040F68900FDF714FC40F00401C9B240F6BD
:10AAF0008900FDF789FB3846FDF7D2FC994B129A85
:10AB00001A6003B0BDE8F083904C4FF00B0884F856
:10AB10004000616484F84C80002B40F0A6801F2127
:10AB2000BCF1000F4FF0000386F00106E67784F8D1
:10AB30004D104FEACE0E14BF4FF0F2084FF001084F
:10AB40004FF0040C182118460126A4F81AE0A2645C
:10AB500084F821802376A37784F81CC0617784F879
:10AB6000226000F097FD94F84040002C3ED0794CD4
:10AB7000304600F0C9FE25786378AB4240F09980FA
:10AB8000754E01233370754800F036FF744800F0AD
:10AB900095FF754B009368460023019300F030FD4C
:10ABA00040F2FF1000F036FD9AE7A1F10B03012BF4
:10ABB0008CBF002301230121053A8A4284F85330D7
:10ABC00021763FF664AFBEF10B0F3FF660AF0C236A
:10ABD000A3845EE75F4E012000F096FE357873781F
:10ABE000AB420DD15C4E012333706EE7204600F07E
:10ABF0008BFE584A584B54701C70C4E70023DAE7A8
:10AC00000120757000F080FE96F8009073784B4537
:10AC100011D0012086F80190FFF748FDB9F1000F2F
:10AC20007CD114214FF4E860FDF7EEFA242140F2C4
:10AC30004170FDF7E9FA484E0123337075BB1421CA
:10AC40004FF4E860FDF7E0FA242140F24170FDF78F
:10AC5000DBFAC8E740F68900FDF75AFB00F0FB017C
:10AC600040F68900FDF7D0FA45E740480121A0F100
:10AC7000080802E0013116290FD050F8085CAB42F9
:10AC800000F108004FEAC109F4D358F83150AB4243
:10AC9000F0D2C84498F8041042E7FEE734214FF49C
:10ACA000E860FDF7B1FA442140F24170FDF7ACFADB
:10ACB00099E73046657000F027FE94F800906378BD
:10ACC0004B4511D0304684F80190FFF7EFFCB9F105
:10ACD000000F2ED114214FF4E860FDF795FA2421DE
:10ACE00040F24170FDF790FA1B4E0123337055B9C5
:10ACF00014214FF4E860FDF787FA242140F24170F7
:10AD0000FDF782FA3DE734214FF4E860FDF77CFA65
:10AD1000442140F24170FDF777FA32E734214FF4D5
:10AD2000E860FDF771FA442140F24170FDF76CFADA
:10AD300081E734214FF4E860FDF766FA442140F2E0
:10AD40004170FDF761FACFE708D40400B46C00202D
:10AD50001D6100202C6D00202E6D0020F46C002061
:10AD6000CC6C00200C6D0020C194C10014D40400F0
:10AD70002DE9F04F87B0CE4E9DF864509DF84C7091
:10AD8000BDF84880DFF854939DF850403570002D91
:10AD900018BF4FF00008002F08BFFF2415469DF88C
:10ADA000542001920E4689F80040BDF844B09DF849
:10ADB0006020824600285DD0012858D10020CDE9CE
:10ADC000023200F0E1FC5FFA88F000F0E9FCB948DB
:10ADD000B94C805D84F85100029B84F840A0E8B231
:10ADE00084F8523084F85000039A002E00F0AF80AF
:10ADF000012E40F0E0800C2D40F0DD8084F853609F
:10AE00002676A4F824B099F80010AC4D002367F31F
:10AE1000070361F30F23019961F3174362F31F6383
:10AE2000C4F82630012000F06FFD2F786B78BB420C
:10AE300040F0A280A24EA3480123337000F0DCFD55
:10AE4000A14800F03BFE94F82930012B40F2367007
:10AE500000F0D380FDF75CFA40F00401C9B240F283
:10AE60003670FDF7D1F9994B4FF47A621A6007B04A
:10AE7000BDE8F08F904C00F087FC0B2384F840A0D5
:10AE8000656484F84C30002E40F0C0801F22019B86
:10AE900099F8001084F82010002B87F001074FF07C
:10AEA0000003E77714BF4FF0F20C4FF0010C1821AC
:10AEB0004FEACB0B184604270126A4F81AB084F8F1
:10AEC0004D2084F821C02376A3772777617784F813
:10AED000226000F0DFFB94F84040002C63D0774CF8
:10AEE000304600F011FD27786378BB4240F0B68011
:10AEF000734E012333707348744C00F07DFD72482B
:10AF000000F0DCFD724B049304A80023059300F0CD
:10AF100077FB40F2FF1000F07DFB28461EF074F82E
:10AF200002460B4600206B491EF012FA06464046C8
:10AF30000F461EF079F802460B46304639461EF0A1
:10AF4000DDF81EF09DFB206007B0BDE8F08FA5F195
:10AF50000B03012B8CBF00230123012105388842FC
:10AF600084F8533021763FF64CAFBBF10B0F3FF620
:10AF700048AF0C23A38446E701206F7000F0C4FCA7
:10AF80002E786B78B34223D14D4E01233370A7B98D
:10AF900014214FF4E860FDF737F9242140F24170A5
:10AFA000FDF732F947E7204600F0AEFC434A444B38
:10AFB00054701C709FE70023CFE734214FF4E86002
:10AFC000FDF722F9442140F24170FDF71DF932E707
:10AFD00001206E70FFF76AFB86BB14214FF4E86016
:10AFE000FDF712F9364E242140F24170FDF70CF9BD
:10AFF00001233370002FCBD0DFE7FDF789F900F094
:10B00000FB0140F23670FDF7FFF82CE732490123CF
:10B01000A1F1080002E00133162B0ED051F8082CE4
:10B02000964201F108014FEAC30CF4D350F83320E3
:10B030009642F0D26044027929E7FEE734214FF4CA
:10B04000E860FDF7E1F81E4E442140F24170FDF743
:10B05000DBF801233370002F9AD0AEE730466770DB
:10B0600000F052FC94F8009063784B4511D03046C4
:10B0700084F80190FFF71AFBB9F1000F3BD11421BE
:10B080004FF4E860FDF7C0F8242140F24170FDF76D
:10B09000BBF80B4E0123337017BB14214FF4E8604B
:10B0A000FDF7B2F8242140F24170FDF7ADF820E73A
:10B0B000976C002008D40400B46C00202C6D002094
:10B0C0002E6D0020F46C0020CC6C0020986C0020C9
:10B0D000C194C1000040BF4014D404001D61002091
:10B0E00034214FF4E860FDF78FF8442140F24170BD
:10B0F000FDF78AF8FDE634214FF4E860FDF784F8A7
:10B10000442140F24170FDF77FF8C2E72DE9F0419C
:10B11000514C012000F0F8FB25786378AB4212D146
:10B120004E4C01230020237000F0CCFA00F08EFA80
:10B1300004464FF0040000F099FA022018F050FD88
:10B140002046BDE8F0810120657000F0DDFB267827
:10B150006378B3420ED1414C012323702DBB1421DF
:10B160004FF4E860FDF750F8242140F24170FDF7FC
:10B170004BF8D6E70120667000F0C6FB27786378AD
:10B18000BB421DD1354C01232370002E42D1142126
:10B190004FF4E860FDF738F8242140F24170FDF7E4
:10B1A00033F801232370002DD9D034214FF4E86007
:10B1B000FDF72AF8442140F24170FDF725F8B0E789
:10B1C0000120677000F0A0FB94F80080637843458D
:10B1D00011D0012084F80180FFF768FAB8F1000F60
:10B1E0002ED114214FF4E860FDF70EF8242140F22F
:10B1F0004170FDF709F8194C01232370AFB91421F0
:10B200004FF4E860FDF700F8242140F24170FCF7AC
:10B21000FBFFB8E734214FF4E860FCF7F5FF442169
:10B2200040F24170FCF7F0FF96E734214FF4E860FC
:10B23000FCF7EAFF442140F24170FCF7E5FFA2E78A
:10B2400034214FF4E860FCF7DFFF442140F2417005
:10B25000FCF7DAFFCFE700BF2C6D00202E6D002039
:10B2600070B57F4C82B00125FCF790FD2570FCF78E
:10B270008FFD237823BB7B4B1A789AB97A4B1A78C7
:10B280000AB902B070BD002278481A70FCF7EAFDD6
:10B29000774B1B68002BF4D05B68002BF1D09847EC
:10B2A00002B070BD002273481A70FCF7DBFD704BD2
:10B2B0001B68002BE2D0DB68002BDFD09847DDE76E
:10B2C000FCF764FD00232370FCF762FD00F0A2FA96
:10B2D00004464FF6FF7000F0FFFCE10737D4A207E9
:10B2E00052D4260642D4A5051AD4600705D5604B72
:10B2F0001B6813B15B6903B19847A106BBD55D48D4
:10B30000FCF7B0FD5C4B1B78002B00F09180584B94
:10B310001B68002BAFD0DB68002BACD09847AAE7A6
:10B3200000F002F9042870D000F0FEF80528DCD106
:10B330005048FCF797FD012000F0FCF84C4B1A68D0
:10B34000002ADAD0D268002A6DD09047CDE747486E
:10B35000FCF788FD284600F0EDF8454B1B68002BF4
:10B36000BDD01B68002BBAD09847B8E7012000F089
:10B37000E1F83F4B1B68002BB5D0DB69002BB2D046
:10B38000C4F300209847AEE73A48FCF76BFD3A4B10
:10B390001D78002D50D0FF22002138481EF083FA7E
:10B3A000630616D5FF22002134481EF07CFAFF22E6
:10B3B0000DF10701314800F0D7F8314800F04CFC9E
:10B3C0002B4B1B68002B8CD01B69002B89D0984716
:10B3D00087E72B4D2948FF220DF1070100F0C4F843
:10B3E000284600F039FC224B1B68002B3FF479AF54
:10B3F0009E68002E3FF475AF95F90D3095F90C203D
:10B400009DF807101D48B0476BE71848FCF72AFD68
:10B41000012000F08FF8164B1A68002A3FF46DAF38
:10B420005268002A91D162077FF567AF1B6861E718
:10B43000012000F07FF86AE7012000F07BF8294640
:10B4400040F60210FCF7E0FE40F64410FCF760FF07
:10B4500040F00201C9B240F64410FCF7D5FE9AE76D
:10B46000836B0020086D0020096D0020106D002006
:10B47000286D00209C6C0020976C0020986B0020A9
:10B48000846B00200249034A00234B7053707047BD
:10B49000106D00209C6C002030B5044683B0FCF792
:10B4A00085FD204602ACFCF779FDFCF7ADFD0023DD
:10B4B00004F8053DFDF72CFA214601228020FCF717
:10B4C000DBFD154D9DF80320144C95F82930002A1A
:10B4D0000CBF0122022222706BB995F8283033B1DB
:10B4E00002A9012201F8042D9D20FCF7C5FD0123CE
:10B4F000237003B030BD02A9094B41F8043D04227A
:10B500009720FCF7B9FD02A97F2301F8083D01222D
:10B510008920FCF7B1FDE0E7E8690020356D0020E7
:10B52000070000CCFCF73ABD014B1878704700BF0C
:10B53000356D0020014B1870704700BF356D00203D
:10B5400008B5084B1B782BB1062B03D0BDE808408B
:10B55000FCF748BDFCF758FDFCF7B0FFBDE808401C
:10B56000FCF740BD356D002070B582B006460D4633
:10B57000144601A902221320FCF7C0FD104B1B78D2
:10B58000012B0FD09DF804202A7094429DF80500ED
:10B5900002D2012002B070BD3146FCF73BFF002013
:10B5A00002B070BD40F20470FCF7B2FEC011012879
:10B5B000E8D140F20270FCF7ABFE02462870E4E7E7
:10B5C000346D002030B5144683B00A460146002091
:10B5D000FCF7DEFE0425094B8DF80640200C8DF8A3
:10B5E0000400240A03220DEB050183208DF8054099
:10B5F0001D70FCF741FD03B030BD00BF356D00206C
:10B6000008B5014608224FF4D860FCF7B9FD0020C8
:10B6100008BD00BF0C4B1B7803B1704710B5044642
:10B620004FF4D760FCF774FEC4F3002300F0FE0172
:10B6300019434FF4D760FCF7E7FDE1B240F2B9607F
:10B64000BDE81040FCF7E0BD346D002000B583B0CC
:10B6500002A9002341F8043D042240F61900FCF73A
:10B660000DFE019800BA03B05DF804FB10B582B07E
:10B6700002AC04F8040DFDF74BF9214601228420A9
:10B68000FCF7FAFC024B00221A7002B010BD00BF9A
:10B69000356D002010B582B002AC04F8010DFDF745
:10B6A00037F9214601228020FCF7E6FC9DF80720AF
:10B6B000034B002A0CBF012202221A7002B010BDF7
:10B6C000356D002070B582B0084C8DF80600030A75
:10B6D000060C0525032201A982208DF804608DF84F
:10B6E00005302570FCF7C8FC02B070BD356D002038
:10B6F00030B50C4B83B004460522962140F6AC00D1
:10B700001A70250CFCF780FD230A032201A9822070
:10B710008DF806408DF804508DF80530FCF7ACFC30
:10B7200003B030BD356D002070B582B00B0A060C39
:10B73000050A0C0C8DF802008DF8051006226946EA
:10B7400094208DF804308DF800608DF801508DF84C
:10B750000340FCF791FC024B06221A7002B070BD48
:10B76000356D002008B500221146C520FCF784FC89
:10B77000014B07221A7008BD356D002000221146CA
:10B78000D120FCF779BC00BF00B583B002A901222B
:10B7900001F8010D9F20FCF76FFC03B05DF804FB7E
:10B7A00000B583B002A9012201F8010DA020FCF729
:10B7B00063FC03B05DF804FB00B583B002A901226D
:10B7C00001F8010D9620FCF757FC03B05DF804FB6F
:10B7D00070B582B01446082220FA02F58DF80100F7
:10B7E00021FA02F08DF8005024FA02F68DF80310C9
:10B7F00023FA02F58DF80200694610468DF80540DF
:10B800008DF804608DF807308DF80650FCF734FC95
:10B8100002B070BD00B583B0022201A91220FCF76E
:10B820006DFC9DF804009DF8053043EA002003B04C
:10B830005DF804FB0000000070B52D4D2B7882B040
:10B840000446F3B101AE20461DF0DEFB26A3D3E98A
:10B8500000231DF053FC1DF013FF0023020E62F3C2
:10B860000703020C62F30F23020A62F3174360F32B
:10B870001F633146042286200193FCF7FDFB02B0D2
:10B8800070BD1C4B984210D81B4B98421AD81B4BCA
:10B89000984221D81A4B984219D81A4B984284BF23
:10B8A00046F66B73ADF8043003E04EF6E113ADF8E5
:10B8B000043001AE314602229820FCF7DDFB012363
:10B8C0002B70C0E74DF6D733ADF80430F1E748F2FE
:10B8D0007513ADF80430ECE74CF2C153ADF8043009
:10B8E000E7E700BFAFF300808DEDB5A0F7C6F03FEE
:10B8F000366D002000E9A43580F8A9328044E52D9A
:10B90000000B6B1B40FC541910B582B002A9054C0A
:10B9100001F8010D034601228A202370FCF7ACFBDD
:10B9200002B010BD346D0020014B1878704700BF85
:10B93000346D002070B5044682B000200E46FCF73E
:10B94000B3FD012823D10F2C02AD43D0264B45F87F
:10B95000043D042229469520FCF78EFB6FF010036E
:10B960009C42B8BF1C460E2CA8BF0E24E4B218217E
:10B9700040F6E700FCF748FC294602228E208DF8AD
:10B9800004408DF80560FCF777FB02B070BD40F60F
:10B99000D800FCF7BDFC40F01E01C9B240F6D8004B
:10B9A00002ADFCF731FC114B45F8043D0422294659
:10B9B0009520FCF761FB6FF008039C42B8BF1C4662
:10B9C000382140F6E700FCF71FFC162CA8BF162410
:10B9D000E4B2D1E7064B45F8043D04222946952000
:10B9E000FCF74AFB0E24C2E7040001010407000132
:10B9F000060001010000000070B52F4D04462B78B1
:10BA0000007884B000229842CDE902220BD1ABB17C
:10BA1000012B06D12369029302A904228B20FCF793
:10BA20002BFB04B070BD04A9287001F8090D012298
:10BA30008A20FCF721FB2378002BE9D160681DF0F8
:10BA4000E3FA02460B4618A1D1E900011DF080FC83
:10BA50001DF016FE627B217B8DF80C200346060C40
:10BA6000050AA0688DF80A308DF809508DF8086035
:10BA70008DF80B101DF0C8FA0DA3D3E900231DF0BB
:10BA80003DFB1DF0FDFD02A90346050C040A08223A
:10BA90008B208DF80F308DF80D508DF80E40FCF78F
:10BAA000EBFA04B070BD00BF000000008084CE41FE
:10BAB0008DEDB5A0F7C6F03F346D002070B5464E51
:10BAC0000578337886B000229D420446CDE90322F2
:10BAD0008DF814201BD12BB3012B16D1A389627CC6
